:020000040000FA
:06000000AFEF38F0120022
:020006001200E6
:060008003AEF00F01200C7
:02000E000000F0
:06001000000000000000EA
:0600180005EF35F01200B7
:02001E000700D9
:10002000BE720000900300001C000000BB720000C4
:10003000B803000003000000B8720000FD020000D9
:1000400003000000B4720000B403000004000000CC
:1000500080720000C90200003400000090710000AE
:1000600000010000F00000000E000000AC030000E2
:040070000800000084
:0C007400DACFE4FFE2CFDAFFE9CFE4FFCF
:10008000EACFE4FFF6CFE4FFF7CFE4FFF5CFE4FFDC
:10009000F3CFE4FFF4CFE4FFFACFE4FF00EE00F08B
:1000A000140EE80403E3EECFE4FFFBD700EE14F0F8
:1000B000040EE80403E3EECFE4FFFBD7E652D9CF0A
:1000C000E6FFE1CFD9FFE652DF6AF29E9EAA47D152
:1000D000020190A569D0AECF00F30201C251030125
:1000E000005D04E0AA0E005D01E0CCD0AB96100EDE
:1000F000E66E270EE66ECDEC06F0E552E5520009FD
:1001000001E124D1AECF01F3100EE66E270EE66EAC
:10011000CDEC06F0E552E552000901E117D1AECF72
:1001200002F3100EE66E270EE66ECDEC06F0E552F9
:10013000E552000901E10AD1AECF03F3100EE66EDD
:10014000270EE66ECDEC06F0E552E552000901E11E
:10015000FDD0DF50EA6A040FE96E030EEA22AECF4B
:10016000EFFFDF2A020EDF5CEA6A040FE96E030E7E
:10017000EA22EF508A0809E1DF04EA6A040FE96E17
:10018000030EEA22EF50440803E0400EDF5CD6E3A2
:10019000100EE66E270EE66ECDEC06F0E552E55247
:1001A000000901E0D5D0D2D090A16ED0AECF00F33F
:1001B0000201C3510301005D08E0AA0E005D05E0E5
:1001C0000201C2510301005D5DE1AB96100EE66EC7
:1001D000270EE66ECDEC06F0E552E552000901E18E
:1001E000B5D0AECF01F3100EE66E270EE66ECDEC65
:1001F00006F0E552E552000901E1A8D0AECF02F3C6
:10020000100EE66E270EE66ECDEC06F0E552E552D6
:10021000000901E19BD0AECF03F3100EE66E270E6E
:10022000E66ECDEC06F0E552E552000901E18ED014
:10023000DF50EA6A040FE96E030EEA22AECFEFFF49
:10024000DF2A020EDF5CEA6A040FE96E030EEA227F
:10025000EF508A0809E1DF04EA6A040FE96E030E31
:10026000EA22EF50440803E0400EDF5CD6E3100EB4
:10027000E66E270EE66ECDEC06F0E552E55200097B
:1002800067E164D0006B6BD0AECF00F30201C351C5
:100290000301005D03E0AA0E005D60E1AB96100E65
:1002A000E66E270EE66ECDEC06F0E552E55200094B
:1002B0004DE0AECF01F3100EE66E270EE66ECDECEC
:1002C00006F0E552E552000941E0AECF02F3100E10
:1002D000E66E270EE66ECDEC06F0E552E55200091B
:1002E00035E0AECF03F3100EE66E270EE66ECDECD2
:1002F00006F0E552E552000929E0DF50EA6A040FF2
:10030000E96E030EEA22AECFEFFFDF2A020EDF5CBA
:10031000EA6A040FE96E030EEA22EF508A0809E147
:10032000DF04EA6A040FE96E030EEA22EF50440884
:1003300003E0400EDF5CD7E3100EE66E270EE66E9C
:10034000CDEC06F0E552E552000902E1AB866FD034
:10035000AECF46F303014781AB8601D0006BA4AA60
:100360006FD074CF48F30201C3510301485D03E02D
:10037000AA0E485D64E17196E80EE66E030EE66E25
:10038000FDEC06F0E552E552000925E074CF49F393
:10039000E80EE66E030EE66EFDEC06F0E552E55261
:1003A000000919E074CF4AF3E80EE66E030EE66E1C
:1003B000FDEC06F0E552E55200090DE074CF4BF379
:1003C000DF6AE80EE66E030EE66EFDEC06F0E5521F
:1003D000E552000902E171862AD0DF50EA6A4C0F2B
:1003E000E96E030EEA2274CFEFFFDF2A020EDF5C14
:1003F000EA6A4C0FE96E030EEA22EF508A0809E11F
:10040000DF04EA6A4C0FE96E030EEA22EF5044085B
:1004100003E0400EDF5CD5E3E80EE66E030EE66E09
:10042000FDEC06F0E552E552000903E17186F28E1B
:1004300008D074CF8EF303018F81718601D0486B91
:10044000F28EE552E552E7CFD9FFE55200EE17F004
:10045000040EE80403E3E5CFEDFFFBD700EE13F055
:10046000140EE80403E3E5CFEDFFFBD7E5CFFAFF79
:10047000E5CFF4FFE5CFF3FFE5CFF5FFE5CFF7FFDD
:10048000E5CFF6FFE5CFEAFFE5CFE9FFE5CFDAFFFD
:100490001100D9CFE6FFE1CFD9FFE652DF6A0201B2
:1004A000908FFD0EDBCFE9FFFE0EDBCFEAFF460E9D
:1004B000E926000EEA22EF6AFD0EDBCFE6FFFE0E14
:1004C000DBCFE6FFD5D9E552E552E66EFD0EDBCF78
:1004D000E9FFFE0EDBCFEAFF460EE926000EEA2218
:1004E000E552E750EF6EB8ACFED7AB988B8A9E50C2
:1004F000100B12E09E50200B0FE1B850400B0CE0A7
:10050000AC80FD0EDBCFE9FFFE0EDBCFEAFFEF5044
:10051000AD6EACA2FED7AC909E50100B11E09E5079
:10052000200B0EE1B850400B0BE0FD0EDBCFE9FFD6
:10053000FE0EDBCFEAFFEE52EF50AD6EACA2FED75F
:100540009E50100B14E09E50200B11E1B850400B50
:100550000EE0FD0EDBCFE9FFFE0EDBCFEAFF020E61
:10056000E926000EEA22EF50AD6EACA2FED79E50F7
:10057000100B14E09E50200B11E1B850400B0EE020
:10058000FD0EDBCFE9FFFE0EDBCFEAFF030EE9260F
:10059000000EEA22EF50AD6EACA2FED79E50100BBB
:1005A0001FE09E50200B1CE1B850400B19E0FD0EDF
:1005B000DBCFE9FFFE0EDBCFEAFF040EE926000EDB
:1005C000EA22E9CF14F0EACF15F0DF500F01E92459
:1005D000E96E000EEA20EA6EEF50AD6EACA2FED7D7
:1005E000DF2AFD0EDBCFE9FFFE0EDBCFEAFF040EB4
:1005F000E926000EEA22E9CF14F0EACF15F0020E48
:10060000DF5C0F01E924E96E000EEA20EA6EEF508C
:100610008A0817E1FD0EDBCFE9FFFE0EDBCFEAFF14
:10062000040EE926000EEA22E9CF16F0EACF17F011
:10063000DF04E924E96E000EEA20EA6EEF50440878
:1006400003E0400EDF5CAAE39E50100B14E09E50C6
:10065000200B11E1B850400B0EE0FD0EDBCFE9FF9F
:10066000FE0EDBCFEAFF460EE926000EEA22EF502F
:10067000AD6EACA2FED78B9A0201909FAB88E5527B
:10068000E552E7CFD9FF1200D9CFE6FFE1CFD9FF7E
:10069000E652DF6A020190ABE6D09089FD0EDBCF17
:1006A000E9FFFE0EDBCFEAFF460EE926000EEA2246
:1006B000EF6AFD0EDBCFE6FFFE0EDBCFE6FFD8D8FC
:1006C000E552E552E66EFD0EDBCFE9FFFE0EDBCF15
:1006D000EAFF460EE926000EEA22E552E750EF6EE9
:1006E00070ACFED771988A8AA450100B12E0A45007
:1006F000200B0FE17050400B0CE07280FD0EDBCF41
:10070000E9FFFE0EDBCFEAFFEF50736E72A2FED759
:100710007290A450100B11E0A450200B0EE1705009
:10072000400B0BE0FD0EDBCFE9FFFE0EDBCFEAFF57
:10073000EE52EF50736E72A2FED7A450100B14E06D
:10074000A450200B11E17050400B0EE0FD0EDBCFEA
:10075000E9FFFE0EDBCFEAFF020EE926000EEA22D9
:10076000EF50736E72A2FED7A450100B14E0A45089
:10077000200B11E17050400B0EE0FD0EDBCFE9FFC6
:10078000FE0EDBCFEAFF030EE926000EEA22EF5051
:10079000736E72A2FED7A450100B1BE0A450200B66
:1007A00018E17050400B15E0FD0EDBCFE9FFFE0EA7
:1007B000DBCFEAFF040EE926000EEA22DF500F012C
:1007C000E924E96E000EEA20EA6EEF50736E72A221
:1007D000FED7DF2AFD0EDBCFE9FFFE0EDBCFEAFFFF
:1007E000040EE926000EEA22020EDF5C0F01E92466
:1007F000E96E000EEA20EA6EEF508A0816E1FD0E5F
:10080000DBCFE9FFFE0EDBCFEAFF040EE926000E88
:10081000EA22DF04E924E96E000EEA20EA6EEF50D6
:10082000440803E1400EDF5C03E3400EDF5CB3E30A
:10083000A450100B14E0A450200B11E17050400B99
:100840000EE0FD0EDBCFE9FFFE0EDBCFEAFF460E2A
:10085000E926000EEA22EF50736E72A2FED78A9A42
:10086000020190997188E552E552E7CFD9FF120055
:10087000D9CFE6FFE1CFD9FF020EE126DF6A010EF4
:10088000DB6AFD0EDBCFE9FFFE0EDBCFEAFF010ED8
:10089000DBCFE7FFEF50E726010EE7CFDBFFFD0ED2
:1008A000DBCFE9FFFE0EDBCFEAFFEE52010EDBCF1E
:1008B000E7FFEF50E726010EE7CFDBFFFD0EDBCFB2
:1008C000E9FFFE0EDBCFEAFF020EE926000EEA2268
:1008D000010EDBCFE7FFEF50E726010EE7CFDBFF8E
:1008E000FD0EDBCFE9FFFE0EDBCFEAFF030EE926AC
:1008F000000EEA22010EDBCFE7FFEF50E726010EE4
:10090000E7CFDBFFDF6A400EDF5C40E2FD0EDBCFAE
:10091000E9FFFE0EDBCFEAFF040EE926000EEA2215
:10092000DF50E924E96E000EEA20EA6E010EDBCF0B
:10093000E7FFEF50E726010EE7CFDBFFFD0EDBCF31
:10094000E9FFFE0EDBCFEAFF040EE926000EEA22E5
:10095000DF04E924E96E000EEA20EA6EEF508A080F
:1009600013E1FD0EDBCFE9FFFE0EDBCFEAFF040E45
:10097000E926000EEA22DF50E924E96E000EEA20A3
:10098000EA6EEF50440802E0DF2ABDD7010EDB1EFD
:10099000DB50146E020EE15C02E2E16AE552E16EA8
:1009A0001450E552E7CFD9FF1200D9CFE6FFE1CFCF
:1009B000D9FF020EE126DF6A010EDB6AFD0EDBCFF6
:1009C000E9FFFE0EDBCFEAFF470EE926000EEA2222
:1009D000EF92FD0EDBCFE9FFFE0EDBCFEAFFEFCF9C
:1009E000DFFFFD0EDBCFE9FFFE0EDBCFEAFFEE52AD
:1009F000EF50DF26FD0EDBCFE9FFFE0EDBCFEAFF77
:100A0000020EE926000EEA22EF50DF26FD0EDBCFB4
:100A1000E9FFFE0EDBCFEAFF030EE926000EEA2215
:100A2000EF50DF26010EDB6A400EF36E010EDBCFC6
:100A3000F4FFF350F45C3EE2FD0EDBCFE9FFFE0E67
:100A4000DBCFEAFF040EE926000EEA22010EDB509E
:100A5000E924E96E000EEA20EA6EEF50DF26FD0E73
:100A6000DBCFE9FFFE0EDBCFEAFF040EE926000E26
:100A7000EA22010EDB04E924E96E000EEA20EA6EA8
:100A8000EF508A0814E1FD0EDBCFE9FFFE0EDBCF4D
:100A9000EAFF040EE926000EEA22010EDB50E924EB
:100AA000E96E000EEA20EA6EEF50440803E0010E02
:100AB000DB2ABAD7FD0EDBCFE9FFFE0EDBCFEAFF64
:100AC000460EE926000EEA22EF50DF26FF0EDF5C1D
:100AD0000DE1FD0EDBCFE9FFFE0EDBCFEAFF470E97
:100AE000E926000EEA22EF82010E01D0000E146EFC
:100AF000020EE15C02E2E16AE552E16E1450E55259
:100B0000E7CFD9FF1200D9CFE6FFE1CFD9FFE652F8
:100B1000DF6ADF6AFB0EDB50DF5C14E2FD0EDBCF29
:100B2000E9FFFE0EDBCFEAFFFC0EDBCFEFFFFD0E91
:100B3000DBCFE9FFDB2AFE0EDBCFEAFF01E3DB2A96
:100B4000DF2AE8D7E552E552E7CFD9FF12000201CC
:100B5000C16B0201E10EC26F0201909590979093D4
:100B600080AE03D00201C18102D00201C19180ACEC
:100B700002D0C18301D0C19382A002D0C18501D02F
:100B8000C19582A602D0C18701D0C19782A802D0A8
:100B9000C18901D0C19981A202D0C18B01D0C19B72
:100BA00081A802D0C18D01D0C19DC19FC1C2C3F235
:100BB00002019083909590970201C151400815E27F
:100BC000C151600805E202019093909590870DD085
:100BD00002013F0E0201C117020190939085909788
:100BE0000201E10EC26FC1C2C3F20201C151120083
:100BF000D9CFE6FFE1CFD9FF0201C16B0201E10EBF
:100C0000C26F0201C36B0201909590979093FD0E05
:100C1000DBCFC1F2FE0EDB503B0A1DE0010A17E0FC
:100C2000030A0CE0010A1BE1909390859097020162
:100C3000C26BE10EC26FC1C2C3F219D00201C19FE3
:100C4000C1C2C3F2020190839095909710D0909307
:100C5000909590870CD07BDF0201C16F08D0E668C9
:100C6000E66AE66A21EC29F0E552E552E552020116
:100C7000C151E552E7CFD9FF12000201C16B020159
:100C8000E10EC26F020190959097909380BE03D0C1
:100C90000201C18F02D00201C19F80BC02D0C18D70
:100CA00001D0C19D82B002D0C18B01D0C19B82B660
:100CB00002D0C18901D0C19982B802D0C18701D0C8
:100CC000C19781B202D0C18501D0C19581B802D04F
:100CD000C18301D0C19384B602D0C18101D0C1913A
:100CE000C15109E1020190870201C36B0201C26B8D
:100CF0000201C16B0BD080BE03D00201908502D0EF
:100D0000020190830201C19FC1C2C3F2C15112000E
:100D1000D9CFE6FFE1CFD9FF0201C16B0201E10E9D
:100D2000C26F0201C36B0201909590979093FD0EE4
:100D3000DBCFC1F2FE0EDB503B0A1DE0010A17E0DB
:100D4000030A0CE0010A1BE1909390859097020141
:100D5000C26BE10EC26FC1C2C3F219D00201C19FC2
:100D6000C1C2C3F2020190839095909710D09093E6
:100D7000909590870CD081DF0201C16F08D0E668A2
:100D8000E66AE66A21EC29F0E552E552E5520201F5
:100D9000C151E552E7CFD9FF1200D9CFE6FFE1CF2D
:100DA000D9FF020EE126DE6ADD6A9EBA19D0DECFD7
:100DB00014F0DDCF15F0FD0EDBCF16F0FE0EDBCF0D
:100DC00017F01650145C1750155805E2DF2A010E73
:100DD000ECE3DB2AEAD7AE50DE6EDD6A000E01D00E
:100DE000010E146E020EE15C02E2E16AE552E16E70
:100DF0001450E552E7CFD9FF1200D9CFE6FFE1CF7B
:100E0000D9FF020EE126DE6ADD6AA4BA19D0DECF70
:100E100014F0DDCF15F0FD0EDBCF16F0FE0EDBCFAC
:100E200017F01650145C1750155805E2DF2A010E12
:100E3000ECE3DB2AEAD77450DE6EDD6A000E01D0E7
:100E4000010E146E020EE15C02E2E16AE552E16E0F
:100E50001450E552E7CFD9FF1200D9CFE6FFE1CF1A
:100E6000D9FF040EE126DF6A010EDB6A020EDB6A9F
:100E7000030EDB6A0400FD0EDBCFE9FFFE0EDBCFC5
:100E8000EAFF470EE926000EEA22EF50010B61E06F
:100E9000FD0EDBCFE9FFFE0EDBCFEAFF470EE926B2
:100EA000000EEA22EF90FD0EDBCFE9FFFE0EDBCF56
:100EB000EAFFEF500201C35D09E0FD0EDBCFE9FF61
:100EC000FE0EDBCFEAFFEF50AA0843E1FD0EDBCFB9
:100ED000E9FFFE0EDBCFEAFF030EE926000EEA2251
:100EE000EF50020836E1FD0EDBCFE6FFFE0EDBCF52
:100EF000E6FF5BDDE552E552146EFD0EDBCFE9FF48
:100F0000FE0EDBCFEAFF470EE926000EEA22145060
:100F1000010BF36EF346FD0EEF14F310EF6EFD0EB2
:100F2000DBCFE9FFFE0EDBCFEAFF470EE926000E1E
:100F3000EA22EF50020B0DE0FD0EDBCFE9FFFE0EC3
:100F4000DBCFEAFF470EE926000EEA22EF92010E00
:100F5000DF6E010EDB2A020E01E3DB2A010EDBCF7E
:100F600014F0020EDBCF15F0166A500E141804E1CF
:100F7000C30E151801E116502EE1010EDB6A020EB8
:100F8000DB6A030EDB2A020190A513D0050E0201D5
:100F9000C325F36E030EDB50F35C0AE1030EDB6A3C
:100FA00002019051040B01E0010EE66E6FDBE55289
:100FB00012D00B0E0201C125F36E030EDB50F35C61
:100FC0000AE1030EDB6A02019051040B01E0010EFD
:100FD000E66E5CDBE552DF5001E14CD7010E00D03C
:100FE000146E040EE15C02E2E16AE552E16E145017
:100FF000E552E7CFD9FF1200020190A504D0480EB8
:10100000E66E030E05D090A308D0000EE66E030E28
:10101000E66E23DFE552E552010C000CD9CFE6FF66
:10102000E1CFD9FF0301B92B000EBA23C40EB919C1
:1010300069E1090EBA1966E1B96BBA6BB82B020106
:1010400095510301D880B8555DE3FD0EDBCFE9FF74
:10105000FE0EDBCFEAFFB8C3EFFFFD0EDBCFE9FFEB
:10106000FE0EDBCFEAFFEE52C2C2EFFFFD0EDBCF7A
:10107000E9FFFE0EDBCFEAFF020EE926000EEA22B0
:10108000EF6AFD0EDBCFE9FFFE0EDBCFEAFF030EBA
:10109000E926000EEA22030EEF6EFD0EDBCFE9FF1C
:1010A000FE0EDBCFEAFF040EE926000EEA22EF6A0D
:1010B000FD0EDBCFE9FFFE0EDBCFEAFF040EE926D3
:1010C000000EEA22010EE926000EEA228A0EEF6ED9
:1010D000FD0EDBCFE9FFFE0EDBCFEAFF040EE926B3
:1010E000000EEA22020EE926000EEA22440EEF6EFE
:1010F000FD0EDBCFE6FFFE0EDBCFE6FF49EC02F094
:10110000E552E552020195510301B85D05E1B96B65
:10111000BA6BB86B000E01D0010EE552E7CFD9FFD4
:101120001200D9CFE6FFE1CFD9FFE652DF6ADF6ACE
:10113000DF50146E156AD890155004E6100E145C3A
:10114000000E155809E2DF50EA6AD90FE96E020E67
:10115000EA22EF6ADF2AECD7FD0EDBCFE9FFFE0EB5
:10116000DBCFEAFFAA0EEF6EFD0EDBCFE9FFFE0E2E
:10117000DBCFEAFFEE52C2C2EFFFFD0EDBCFE9FF8D
:10118000FE0EDBCFEAFF020EE926000EEA22EF6A2E
:10119000FD0EDBCFE9FFFE0EDBCFEAFF030EE926F3
:1011A000000EEA22020EEF6EFD0EDBCFE9FFFE0E0F
:1011B000DBCFEAFF040EE926000EEA22EF6AFD0EFD
:1011C000DBCFE9FFFE0EDBCFEAFF040EE926000EBF
:1011D000EA22010EE926000EEA228A0EEF6EFD0ECB
:1011E000DBCFE9FFFE0EDBCFEAFF040EE926000E9F
:1011F000EA22020EE926000EEA22440EEF6EFD0EF0
:10120000DBCFE6FFFE0EDBCFE6FF49EC02F0E55256
:10121000E552000EE552E552E7CFD9FF1200D9CFD3
:10122000E6FFE1CFD9FF020EE126DF6A010EDB6A9D
:10123000DF6ADB6ADF50146E156AD890155004E639
:10124000800E145C000E15583EE2DF500301D8807A
:10125000015533E2080EDF24D88001552EE3040542
:1012600016E1DF50015DFF0F156E010E155204E00F
:10127000E846FE0B1506FCE1146E010EDB50EA6A2F
:10128000C90FE96E020EEA221450EF1216D0DF5099
:10129000015DFF0F156E010E155204E0E846FE0BCE
:1012A0001506FCE1FF0A146E010EDB50EA6AC90F55
:1012B000E96E020EEA221450EF16010EDB2A080E28
:1012C000DF24DF6EB7D7020EE15C02E2E16AE5528D
:1012D000E16EE552E7CFD9FF1200D9CFE6FFE1CFAB
:1012E000D9FF020EE126DF6A010EDB6A0201D98115
:1012F000DF6ADB6ADF50146E156AD890155004E679
:10130000800E145C000E155825E2DF500301D880D2
:1013100001551AE2080EDF24D880015515E3DF508D
:10132000015DFF0F156E010E155204E0E846FE0B3D
:101330001506FCE1146E010EDB50EA6AD90FE96E66
:10134000020EEA221450EF12080EDF24DF6E010EA7
:10135000DB2AD0D7020EE15C02E2E16AE552E16EDF
:10136000E552E7CFD9FF1200D9CFE6FFE1CFD9FF91
:10137000030EE126DF6A010EDB6A020EDB6ADB6A1E
:10138000010EDB6A020EDB50146E156AD890155000
:1013900004E6800E145C000E15583FE2FE0EDBCF13
:1013A00014F0020EDB50D88014542DE2FE0EDBCF79
:1013B00015F0020EDB50080FD880155424E3010EFF
:1013C000DB50EA6AC90FE96E020EEA22EFCFDFFFB7
:1013D000FE0EDBCFE6FF020EDB50E552E75CFF0FAF
:1013E000146EDF5014C0E7FFE75204E0E8427F0BC1
:1013F000E706FCE1DF6E000EDF92DF94DF96DF98F8
:10140000DF9ADF9CDF9E020EDB50080FE76E020EB4
:10141000E7CFDBFF010EDB2AB5D7DF50146E030EDA
:10142000E15C02E2E16AE552E16E1450E552E7CF79
:10143000D9FF1200D9CFE6FFE1CFD9FFE652DF6A2C
:10144000DF6ADF50146E156AD890155004E6100E4E
:10145000145C000E15581DE2DF50EA6AC90FE96EF0
:10146000020EEA22EF50E66EFD0EDBCFE9FFFE0E24
:10147000DBCFEAFF040EE926000EEA22DF50E92462
:10148000E96E000EEA20EA6EE552E750EF6EDF2AC1
:10149000D8D7FD0EDBCFE9FFFE0EDBCFEAFF040E4F
:1014A000E926000EEA22100EE926000EEA2295C275
:1014B000EFFFFD0EDBCFE9FFFE0EDBCFEAFF040EF0
:1014C000E926000EEA22110EE926000EEA228A0E13
:1014D000EF6EFD0EDBCFE9FFFE0EDBCFEAFF040E61
:1014E000E926000EEA22120EE926000EEA22440E38
:1014F000EF6EE552E552E7CFD9FF1200D9CFE6FFF4
:10150000E1CFD9FFFD0EDBCFE9FFFE0EDBCFEAFF17
:10151000EE52EF50E66EFB0EDBCFE9FFFC0EDBCFA9
:10152000EAFFE552E750EF6EFD0EDBCFE9FFFE0E5E
:10153000DBCFEAFFEF50E66EFB0EDBCFE9FFFC0EE0
:10154000DBCFEAFFEE52E552E750EF6EFB0EDBCF4A
:10155000E9FFFC0EDBCFEAFF020EE926000EEA22CD
:10156000EF6AFB0EDBCFE9FFFC0EDBCFEAFF030ED9
:10157000E926000EEA22060EEF6EFB0EDBCFE9FF36
:10158000FC0EDBCFEAFF040EE926000EEA22EF8014
:10159000FB0EDBCFE9FFFC0EDBCFEAFF040EE926F2
:1015A000000EEA22010EE926000EEA228A0EEF6EF4
:1015B000FB0EDBCFE9FFFC0EDBCFEAFF040EE926D2
:1015C000000EEA22020EE926000EEA22440EEF6E19
:1015D000FB0EDBCFE6FFFC0EDBCFE6FF49EC02F0B3
:1015E000E552E552E552E7CFD9FF12000201E10EC4
:1015F000486FC1C249F24A6B010E4B6F480EE66E4E
:10160000020EE66E17DFE552E552480EE66E020E58
:10161000E66E44EC03F0E552E55212000201AA0E18
:10162000006FE10E016F026B020E036F010E046F7B
:101630008A0E056F440E066F000EE66E020EE66E11
:1016400049EC02F0E552E552020EE66E8FEC38F0FE
:10165000E55212000201AA0E486FE10E496F4A6B73
:10166000020E4B6F010E4C6F8A0E4D6F440E4E6F83
:10167000480EE66E020EE66E44EC03F0E552E552CB
:10168000020EE66E8FEC38F0E5521200D9CFE6FF7D
:10169000E1CFD9FFE668E66AE66AE66AE66AE66AE4
:1016A00027EC28F0146E060EE15E1450E66AE66A36
:1016B000E66AE668E66AE66A27EC28F0146E060E2B
:1016C000E15E1450FE0EDB50010A1CE0010A35E118
:1016D0000201E10E006FC1C201F2026B070E036F3F
:1016E00002019151020B01E0010E0201046F8A0E0A
:1016F000056F440E066F000EE66E020EE66E49ECB4
:1017000002F019D00201E10E486FC1C249F24A6BE2
:10171000070E4B6F02019151020B01E0010E020115
:101720004C6F8A0E4D6F440E4E6F480EE66E020EE1
:10173000E66E44EC03F0E552E552E552E7CFD9FFFF
:101740001200D9CFE6FFE1CFD9FFE652DF6A0201EE
:1017500090A315D00201E10E006FC1C201F2026B2D
:101760000E0E036F010E046F8A0E056F440E066F96
:10177000000EE66E020EE66E49EC02F041D090A536
:1017800041D071D80201956F0201E10E486FC1C2CC
:1017900049F24A6B100E4B6F010E4C6F95C24DF221
:1017A000DF6A100EDF5C14E2DF50EA6AD90FE96EDF
:1017B000020EEA22EF50E66E020EDF24EA6A4C0FB8
:1017C000E96E020EEA22E552E750EF6EDF2AE9D712
:1017D000030EDF24EA6A4C0FE96E020EEA228A0E3B
:1017E000EF6E040EDF24EA6A4C0FE96E020EEA2265
:1017F000440EEF6E480EE66E020EE66E44EC03F009
:10180000E552E552E552E552E7CFD9FF1200D9CFB4
:10181000E6FFE1CFD9FF020EE126DF6A010EDB6AA7
:10182000DB6ADF6A080EDF5C10E2FE0EDB50010BA4
:10183000010802E1010EDB2AFE0EDB407F0BE76EA2
:10184000FE0EE7CFDBFFDF2AEDD7010EDB50146E73
:10185000020EE15C02E2E16AE552E16E1450E552EB
:10186000E7CFD9FF1200D9CFE6FFE1CFD9FF020EB3
:10187000E126DF6A010EDB6ADF6ADF50146E156A4B
:10188000D890155004E6100E145C000E155815E2A1
:10189000DF50EA6AD90FE96E020EEA22EF50E66ED7
:1018A000B6DFE552146E010EDBCFE7FF1450E726DA
:1018B000010EE7CFDBFFDF2AE0D7010EDB50146E0D
:1018C000020EE15C02E2E16AE552E16E1450E5527B
:1018D000E7CFD9FF1200D9CFE6FFE1CFD9FF020E43
:1018E000E126DF6A010EDB6ADF6ADF50146E156ADB
:1018F000D890155004E6100E145C000E155815E231
:10190000DF50EA6AC90FE96E020EEA22EF50E66E76
:101910007EDFE552146E010EDBCFE7FF1450E726A1
:10192000010EE7CFDBFFDF2AE0D7010EDB50146E9C
:10193000020EE15C02E2E16AE552E16E1450E5520A
:10194000E7CFD9FF1200D9CFE6FFE1CFD9FFE652AA
:10195000DF6ADF6AFE0EDB50DF5C07E2320EE66E06
:1019600062EC38F0E552DF2AF5D7010EE552E55278
:10197000E7CFD9FF1200D9CFE6FFE1CFD9FFE6527A
:10198000DF6ADF6AFE0EDB50DF5C07E2C80EE66E40
:1019900062EC38F0E552DF2AF5D7010EE552E55248
:1019A000E7CFD9FF1200D9CFE6FFE1CFD9FF070E6D
:1019B000E126FD0EDBCFE9FFFE0EDBCFEAFF470E8F
:1019C000E926000EEA22EF50010B02E1A5EF13F029
:1019D000FD0EDBCFE9FFFE0EDBCFEAFF470EE92667
:1019E000000EEA22EF90FD0EDBCFE6FFFE0EDBCF0E
:1019F000E6FFD5EC04F0E552E552146EFD0EDBCFA8
:101A0000E9FFFE0EDBCFEAFF470EE926000EEA22D1
:101A10001450010BF36EF346FD0EEF14F310EF6E4E
:101A2000FD0EDBCFE9FFFE0EDBCFEAFF470EE92616
:101A3000000EEA22EF50020B02E15DEF13F0FD0E03
:101A4000DBCFE9FFFE0EDBCFEAFF470EE926000EF3
:101A5000EA22EF92FD0EDBCFE9FFFE0EDBCFEAFFBD
:101A6000030EE926000EEA22EF50FA0A02E113EF14
:101A700013F0040A02E1A6EF12F0010A02E171EF8D
:101A800012F0040A02E134EF12F0070A02E1E8EF73
:101A900011F0010A02E1B3EF11F0E40A01E187D38A
:101AA000010A01E1FFD20F0A01E189D2010A01E135
:101AB00013D2030A01E1C9D1010A01E1A6D1060A44
:101AC00001E19CD1030A01E194D11E0A01E17BD11D
:101AD000020A01E147D1010A01E10CD1070A02E142
:101AE0005DEF13F0010A02E15DEF13F0030A01E17B
:101AF00088D0010A29E00C0A24E0070A07E0010A5D
:101B000002E05DEF13F01DDE5DEF13F00201E10E68
:101B1000486FC1C249F24AC34AF2010E4B6F4AC331
:101B2000E6FF22DCE55202014C6F8A0E4D6F440E37
:101B30004E6F480EE66E020EE66E44EC03F0B0EF18
:101B400011F054DD5DEF13F04AC300F20201E10E23
:101B5000016F026B080E036F4CC304F24DC305F214
:101B60004EC306F28A0E076F440E086F03014A0542
:101B70001CE0AA0E4A5D01E085D04CC3BAF24DC309
:101B8000BCF24EC3BEF2030E0201935D0BE1BEC276
:101B9000E6FFBCC2E6FFBAC2E6FF4DEC27F0E55215
:101BA000E552E5520201410E5BD04CC3BAF24DC37F
:101BB000BCF24EC3BEF2030E0201935D0BE1BEC246
:101BC000E6FFBCC2E6FFBAC2E6FF4DEC27F0E552E5
:101BD000E552E5520201410EF96F4CC3FAF24DC3D2
:101BE000FBF24EC3FCF2040EE66EF90EE66E020E38
:101BF000E66EFAEC23F0E552E552E55203014B6B39
:101C000072D04AC300F20201E10E016F026B090EAD
:101C1000036F4CC304F24DC305F24EC306F28A0EA5
:101C2000076F440E086F03014A0533E0AA0E4A5DB0
:101C300029E14CC3BBF24DC3BDF24EC3BFF2030E4C
:101C40000201935D0BE0BFC2E6FFBDC2E6FFBBC26F
:101C5000E6FF4DEC27F0E552E552E5520201420E57
:101C6000F96F4CC3FAF24DC3FBF24EC3FCF2040E03
:101C7000E66EF90EE66E020EE66EFAEC23F0E55221
:101C8000E552E552000EE66E020EE66E49EC02F0F9
:101C900028D04CC3BBF24DC3BDF24EC3BFF24B6B59
:101CA000030E0201935D0BE0BFC2E6FFBDC2E6FF7B
:101CB000BBC2E6FF4DEC27F0E552E552E5520201CA
:101CC000420EF96F4CC3FAF24DC3FBF24EC3FCF265
:101CD000040EE66EF90EE66E020EE66EFAEC23F0E6
:101CE000E552E552E552BA0EE66E020EE66E71EC72
:101CF0002CF036D34AC300F20201E10E016F026BF1
:101D00000C0E036F4CC304F24DC305F28A0E066F2E
:101D1000440E076F03014A0514E0AA0E4A5D3BE139
:101D20004D51146E156A4C51870DF3501424020165
:101D3000C66FF4501520C76F230EC65F000EC75B39
:101D40002AD04D51146E156A4C51870DF35014244E
:101D50000201C66FF4501520C76F230EC65F000E38
:101D6000C75B28D04AC300F20201E10E016F026B8B
:101D70000D0E036F046B8A0E056F440E066F030190
:101D80004A0512E0AA0E4A5D06E1F4EC1CF0F3CF1E
:101D9000C6F2F4CFC7F2000EE66E020EE66E49EC14
:101DA00002F0E552E55208D0F4EC1CF0F3CFC6F295
:101DB000F4CFC7F203014B6BC40EE66E020EE66E63
:101DC000ECEC2CF0CDD24AC300F249C301F202017F
:101DD000026B0F0E036F4CC304F28A0E056F440EA4
:101DE000066F03014A0501E028D24CC3C0F25DEF43
:101DF00013F00201BB0E996F5DEF13F0000EE66E5B
:101E0000020EE66E91EC08F0ABD24AC300F202017A
:101E1000E10E016F026B140E036F4CC304F28A0EC5
:101E2000056F440E066F03014A050CE0AA0E4A5DD9
:101E300002E14CC3C1F2000EE66E020EE66E49EC02
:101E400002F041D04CC3C1F240D04AC300F20201BB
:101E5000E10E016F026B150E036F4CC304F28A0E84
:101E6000056F440E066F03014A051DE0AA0E4A5D88
:101E700072E1050EE66E3B0EE66EF8EC05F0E552FB
:101E8000E5520201C16FC10EE66E020EE66E26EC4F
:101E90002DF0E552E552C10EE66E020EE66E0BEC39
:101EA0002DF0E55257D0050EE66E3B0EE66EF8ECCF
:101EB00005F0E552E5520201C16FC10EE66E020E59
:101EC000E66E26EC2DF0E552E552C10EE66E020EEE
:101ED000E66E0BEC2DF045D04AC300F20201E10E94
:101EE000016F026B160E036F4CC304F28A0E056F6E
:101EF000440E066F03014A0536E0AA0E4A5D2BE147
:101F0000030E0201935D0AE0E66AE66AE66ABFC272
:101F1000E6FFBDC2E6FFBBC2E6FF09D0E66AE66A9D
:101F2000E66ABEC2E6FFBCC2E6FFBAC2E6FFA8ECA4
:101F300027F0146E060EE15E1450BBEC31F02BEC72
:101F400032F09DEC32F0020192919251010BE66E5B
:101F50009FEC2BF0E552000EE66E020EE66E49ECA9
:101F600002F0E5522AD0030E0201935D0AE0E66A10
:101F7000E66AE66ABFC2E6FFBDC2E6FFBBC2E6FF95
:101F800009D0E66AE66AE66ABEC2E6FFBCC2E6FFC0
:101F9000BAC2E6FFA8EC27F0146E060EE15E1450FC
:101FA000BBEC31F02BEC32F09DEC32F0020192915F
:101FB0009251010BE66E9FEC2BF0E55270D04AC3B4
:101FC00000F20201E10E016F026B170E036F4CC3AA
:101FD00004F28A0E056F440E066F03014A0535E0D0
:101FE000AA0E4A5D2AE1B6EC31F026EC32F097EC0D
:101FF00032F074EC35F0030E0201935D07E0BFC2CE
:10200000E6FFBDC2E6FFBBC2E6FF06D0BEC2E6FFEA
:10201000BCC2E6FFBAC2E6FFE66AE66AE66AA8EC78
:1020200027F0146E060EE15E145002019281925167
:10203000010BE66E9FEC2BF0E552000EE66E020EF1
:10204000E66E49EC02F0E55229D0B6EC31F026EC10
:1020500032F097EC32F074EC35F0030E0201935D30
:1020600007E0BFC2E6FFBDC2E6FFBBC2E6FF06D087
:10207000BEC2E6FFBCC2E6FFBAC2E6FFE66AE66A97
:10208000E66AA8EC27F0146E060EE15E1450020119
:1020900092819251010BE66E9FEC2BF0E552030109
:1020A0004B6B0BD3DF6A010EDB6A4AC300F20201FD
:1020B000E10E016F026B180E036FDF50EA6A4C0FDE
:1020C000E96E030EEA22EF50E66EDF50EA6A040F73
:1020D000E96E020EEA22E552E750EF6EDF2A020EA9
:1020E000DF5CEA6A4C0FE96E030EEA22EF508A08C1
:1020F00009E1DF04EA6A4C0FE96E030EEA22EF50B1
:10210000440803E0400EDF5CD8E303014A0501E028
:1021100094D0010EDB6A400EF36E010EDBCFF4FFAC
:10212000F350F45C36E2010EDB50EA6A4C0FE96EC4
:10213000030EEA22EF508A080AE1010EDB28EA6A60
:102140004C0FE96E030EEA22EF50440822E0010E24
:10215000DB50EA6A4C0FE96E030EEA22EF5016E0FC
:1021600002019081010EE66EDB50EA6A4C0FE96EC7
:10217000030EEA22EF50E66EAA0EE66E020EE66E3F
:102180003DEC18F0E552E552E552E552010EDB2A2E
:10219000C2D7010EE66EE66EAA0EE66E020EE66E7F
:1021A0003DEC18F0E552E552E552E552D3D0020E6F
:1021B000DB6A030EDB6A040EDB6A050EDB6A060EC1
:1021C000DB6A4AC300F20201E10E016F026B190ED5
:1021D000036F020EDB50EA6A4C0FE96E030EEA222F
:1021E000EF50E66E020EDB50EA6A040FE96E020E53
:1021F000EA22E552E750EF6E020EDB2ADB50FE0FBB
:10220000EA6A4C0FE96E030EEA22EF508A080AE1EF
:10221000020EDB04EA6A4C0FE96E030EEA22EF506D
:10222000440808E0400EF36E020EDBCFF4FFF350DB
:10223000F45CCFE303014A0507E0000EE66E020EF0
:10224000E66E49EC02F08CD0030EDB6A400EF36EB2
:10225000030EDBCFF4FFF350F45C48E2030EDB50D7
:10226000EA6A4C0FE96E030EEA22EF508A080AE18F
:10227000030EDB28EA6A4C0FE96E030EEA22EF50E8
:10228000440834E0030EDB50EA6A4C0FE96E030E9B
:10229000EA22EF5028E0E66A030EDB50EA6A4C0FB0
:1022A000E96E030EEA22EF50E66E9A0EE66E020E1B
:1022B000E66E3DEC18F0E552E552E552E552E66A6D
:1022C000030EDB50EA6A4C0FE96E030EEA22EF5070
:1022D000E66EAA0EE66E020EE66E3DEC18F0E552D2
:1022E000E552E552E552030EDB2AB0D7040EDB6A55
:1022F000100EF36E040EDBCFF4FFF350F45C16E225
:10230000040EDB50EA6AAA0FE96E020EEA22EF50D1
:10231000146E156AD950050FE96EDACFEAFF145032
:10232000EE261550ED22040EDB2AE2D7D950050F18
:10233000E96EDACFEAFFEE50ED100AE0D950050F52
:10234000E96EDACFEAFF010EEE1804E1ED5002E18A
:1023500002019091AA0EE66E020EE66EB5EC2BF02D
:10236000E552E552AAD14AC300F20201E10E016F23
:10237000026BFD0E036F4CC304F28A0E056F440E10
:10238000066F03014A050DE0000EE66E020EE66ED2
:1023900049EC02F0E552E552AA0E03014A5D01E064
:1023A0008CD1FC0EE66E030EE66E8CEC31F0E5523D
:1023B000E552C80EE66E62EC38F0E552000EE66EAD
:1023C000E66A8CEC31F0E552E552F3EC37F075D16A
:1023D0004AC300F20201E10E016F026BFC0E036FB3
:1023E0004CC304F28A0E056F440E066F03014A05C2
:1023F00024E0000EE66E020EE66E49EC02F0E552B5
:10240000E552AA0E03014A5D01E057D103014B5189
:10241000146E156AFC0E141801E04FD1155001E03E
:102420004CD1BFC2E6FFBDC2E6FFBBC2E6FFA4ECD3
:1024300029F0E552E552E552E9D703014B51146EFC
:10244000156AFC0E141801E038D1155001E035D1A1
:10245000BFC2E6FFBDC2E6FFBBC2E6FFA4EC29F0A7
:10246000E552E552E552E9D74AC300F20201E10E16
:10247000016F026BFB0E036F4CC304F28A0E056FF3
:10248000440E066F03014A050DE0000EE66E020ED3
:10249000E66E49EC02F0E552E552AA0E03014A5DF0
:1024A00001E00BD1000EE66EE66A8CEC31F0E552ED
:1024B000E552000EE66EE66A6CEC32F0E552E5524B
:1024C000000EE66EE66AFCEC31F0E552E552BBEC3C
:1024D00031F02BEC32F09DEC32F08B948A908B92A1
:1024E000ECD04AC300F20201E10E016F026B0369F6
:1024F0004CC304F28A0E056F440E066F03014A05B1
:102500000DE0000EE66E020EE66E49EC02F0E552BA
:10251000E552AA0E03014A5D01E0CFD0000EE66E3F
:10252000E66A8CEC31F0E552E552000EE66EE66AA2
:10253000FCEC31F0E552E552000EE66EE66A6CEC1A
:1025400032F0E552E552F5EC37F0B7D04AC300F26D
:102550000201E10E016F026BFE0E036F4CC304F229
:102560008A0E056F440E066F03014A0523E0000E34
:10257000E66E020EE66E49EC02F0E552E552AA0E56
:1025800003014A5D01E099D00201470EF96FFA6B31
:10259000FB6BFC6B040EE66EF90EE66E020EE66E49
:1025A000FAEC23F0E552E552E552030E0201935D89
:1025B00016E11FD00201470EF96FFA6BFB6BFC6B43
:1025C000040EE66EF90EE66E020EE66EFAEC23F0ED
:1025D000E552E552E552030E0201935D0AE0E66A18
:1025E000E66AE66ABFC2E6FFBDC2E6FFBBC2E6FF1F
:1025F00009D0E66AE66AE66ABEC2E6FFBCC2E6FF4A
:10260000BAC2E6FFA8EC27F0146E060EE15E145085
:10261000BBEC31F02BEC32F09DEC32F076EC35F087
:102620000201918F4AD04AC300F20201E10E016F0C
:10263000026BFA0E036F4CC304F28A0E056F440E50
:10264000066F03014A050CE0000EE66E020EE66E10
:1026500049EC02F0E552E552AA0E03014A5D2DE174
:102660000201480EF96FFA6BFB6BFC6B040EE66E11
:10267000F90EE66E020EE66EFAEC23F0E552E55234
:10268000E552B6EC31F026EC32F097EC32F074EC17
:1026900035F0BFC2E6FFBDC2E6FFBBC2E6FFE66A99
:1026A000E66AE66AA8EC27F0146E060EE15E1450A6
:1026B0000201919F9181936B9199FD0EDBCFE9FF10
:1026C000FE0EDBCFEAFFEF6AFD0EDBCFE9FFFE0E69
:1026D000DBCFEAFFEE52EF6AFD0EDBCFE9FFFE0E25
:1026E000DBCFEAFFEE52EF6AFD0EDBCFE9FFFE0E15
:1026F000DBCFEAFF030EE926000EEA22EF6A400E66
:10270000E66EE66AFD0EDBCFE9FFFE0EDBCFEAFFE9
:10271000040EE926000EEA22E9CF14F0EACF15F004
:10272000E9CFE6FFEACFE6FF83EC05F0E552E5529C
:10273000E552E552FD0EDBCFE9FFFE0EDBCFEAFFEF
:10274000460EE926000EEA22EF6A070EE15C02E27D
:10275000E16AE552E16EE552E7CFD9FF1200D9CF29
:10276000E6FFE1CFD9FF020EE126DE6ADD6AFC0E4C
:10277000DBCFDEFFDBCFDDFFFE0EDBCF00F20201A1
:10278000E10E016F026B050E036F010EDBCF04F249
:10279000DFCF05F28A0E066F440E076F000EE66E5D
:1027A000020EE66E49EC02F0E552E552020EE15CE3
:1027B00002E2E16AE552E16EE552E7CFD9FF12008D
:1027C000D9CFE6FFE1CFD9FF020EE126DE6ADD6A4E
:1027D000FC0EDBCFDEFFDBCFDDFFFE0EDBCF48F2F2
:1027E0000201E10E496F4A6B050E4B6F010EDBCF04
:1027F0004CF2DFCF4DF28A0E4E6F440E4F6F480EF3
:10280000E66E020EE66E44EC03F0E552E552020E6F
:10281000E15C02E2E16AE552E16EE552E7CFD9FF01
:102820001200D9CFE6FFE1CFD9FF030EE126FD0E5E
:10283000DBCFE9FFFE0EDBCFEAFF470EE926000EF5
:10284000EA22EF50010B01E1B4D3FD0EDBCFE9FF2B
:10285000FE0EDBCFEAFF470EE926000EEA22EF90DC
:10286000FD0EDBCFE6FFFE0EDBCFE6FFD5EC04F07E
:10287000E552E552146EFD0EDBCFE9FFFE0EDBCF15
:10288000EAFF470EE926000EEA221450010BF36E10
:10289000F346FD0EEF14F310EF6EFD0EDBCFE9FFF4
:1028A000FE0EDBCFEAFF470EE926000EEA22EF50CC
:1028B000020B01E136D3FD0EDBCFE9FFFE0EDBCFCD
:1028C000EAFF470EE926000EEA22EF92FD0EDBCF6B
:1028D000E9FFFE0EDBCFEAFF030EE926000EEA2237
:1028E000EF50FA0A01E1F0D2040A01E1B1D2010A83
:1028F00001E196D2040A01E177D2070A01E15DD233
:10290000010A01E157D2E40A01E1B8D1010A01E16B
:102910007CD10F0A01E14CD1010A01E11ED1030A69
:1029200001E102D1010A01E1FCD0050A01E1F5D083
:102930001E0A01E1EFD0010A01E1E2D0030A01E140
:10294000D2D0010A01E1BDD0070A01E1EAD2010AB1
:1029500001E1E7D2030A01E184D0010A62E00F0A33
:1029600048E0050A3EE0030A01E0DBD2020190A53F
:1029700028D090A10AD0E66A04C3E6FF01C3E6FFAF
:1029800020EC24F0E552E552E5520201942B0FECC5
:1029900009F06BEC0CF00201966F918D050E945DC1
:1029A00004E1919D946BF6EC0AF002019651955D5D
:1029B000976F986BE66E98C2E6FFBB0EE66ECFDEB1
:1029C0007ED09051020B01E1ACD29051010B01E19C
:1029D000A8D2E66A04C3E6FF01C3E6FF20EC24F0B8
:1029E0006ED0C1C2E6FFBBEC0CF0E552A1EC0BF0DF
:1029F00098D2020190A595D201C300F20201E10E26
:102A0000016F026B020E036F010E046F8A0E056FD9
:102A1000440E066F000EE66E020EE66E49EC02F002
:102A2000C6D104C3BAF205C3BCF206C3BEF2030E9C
:102A30000201935D0BE1BEC2E6FFBCC2E6FFBAC273
:102A4000E6FF4DEC27F0E552E552E552BA0EE66E90
:102A5000020EE66E71EC2CF0E552E5520201410ED9
:102A60001FD004C3BBF205C3BDF206C3BFF2030E01
:102A70000201935D0BE0BFC2E6FFBDC2E6FFBBC231
:102A8000E6FF4DEC27F0E552E552E552BA0EE66E50
:102A9000020EE66E71EC2CF0E552E5520201420E98
:102AA000F96F04C3FAF205C3FBF206C3FCF2040E8D
:102AB000E66EF90EE66E020EE66EFAEC23F0E552D3
:102AC00076D103010551146E156A0451870DF35038
:102AD00014240201C66FF4501520C76F230EC65F81
:102AE000000EC75B06D0F4EC1CF0F3CFC6F2F4CFB7
:102AF000C7F2C40EE66E020EE66EECEC2CF057D177
:102B0000020190A50ED26DEC09F033EC0CF002013D
:102B1000956F07D204C3C0F204D20201BB0E996FB5
:102B200000D204C3C1F212D0050EE66E3B0EE66E73
:102B3000F8EC05F0E552E5520201C16FC10EE66EF8
:102B4000020EE66E26EC2DF0E552E552C10EE66E61
:102B5000020EE66E0BEC2DF02AD1030E0201935DFE
:102B60000AE0E66AE66AE66ABFC2E6FFBDC2E6FFC1
:102B7000BBC2E6FF09D0E66AE66AE66ABEC2E6FFC5
:102B8000BCC2E6FFBAC2E6FFA8EC27F0146E060E40
:102B9000E15E1450BBEC31F02BEC32F09DEC32F0E6
:102BA00076EC35F08B948A908B920201929124D02E
:102BB000B6EC31F026EC32F097EC32F074EC35F0F4
:102BC000030E0201935D07E0BFC2E6FFBDC2E6FF50
:102BD000BBC2E6FF06D0BEC2E6FFBCC2E6FFBAC279
:102BE000E6FFE66AE66AE66AA8EC27F0146E060ECF
:102BF000E15E1450020192819251010BE66E9FEC4E
:102C00002BF0E55203014B6B8CD1DF6ADF6A400E7B
:102C1000DF5C31E2DF50EA6A040FE96E030EEA225C
:102C2000EF508A0809E1DF28EA6A040FE96E030E13
:102C3000EA22EF5044081FE0DF50EA6A040FE96E11
:102C4000030EEA22EF5015E002019081010EE66EBC
:102C5000DF50EA6A040FE96E030EEA22EF50E66ED7
:102C6000AA0EE66E020EE66E08DAE552E552E5526D
:102C7000E552DF2ACCD7010EE66E88D0010EDB6A62
:102C8000020EDB6A010EDB6A400EF36E010EDBCF33
:102C9000F4FFF350F45C46E2010EDB50EA6A040FE5
:102CA000E96E030EEA22EF508A080AE1010EDB28E2
:102CB000EA6A040FE96E030EEA22EF50440832E09C
:102CC000010EDB50EA6A040FE96E030EEA22EF50B0
:102CD00026E0E66A010EDB50EA6A040FE96E030E95
:102CE000EA22EF50E66E9A0EE66E020EE66EC5D947
:102CF000E552E552E552E552E66A010EDB50EA6A1A
:102D0000040FE96E030EEA22EF50E66EAA0EE66E9D
:102D1000020EE66EB2D9E552E552E552E552010ED9
:102D2000DB2AB2D7010EDB6A100EF36E010EDBCF89
:102D3000F4FFF350F45C18E2010EDB50EA6AAA0FCC
:102D4000E96E020EEA22EF50E66E07EC0CF0E55257
:102D5000146E020EDBCFE7FF1450E726020EE7CF1A
:102D6000DBFF010EDB2AE0D7020EDB041AE10201D1
:102D70009091E66AC1C2E6FF9A0EE66E020EE66E1A
:102D80007CD9E552E552E552E552E66AC1C2E6FF5A
:102D9000AA0EE66E020EE66E70D9E552E552E552D5
:102DA000E552AA0EE66E020EE66EB5EC2BF0E55289
:102DB000E552B7D0F3EC37F0B4D003010351146EF1
:102DC000156AFC0E141801E0ACD0155001E0A9D032
:102DD000BFC2E6FFBDC2E6FFBBC2E6FFA4EC29F01E
:102DE000E552E552E552E9D7000EE66EE66A8CEC54
:102DF00031F0E552E552000EE66EE66A6CEC32F018
:102E0000E552E552000EE66EE66AFCEC31F0E55262
:102E1000E552BBEC31F02BEC32F09DEC32F050D0AF
:102E2000000EE66EE66A8CEC31F0E552E552000EDB
:102E3000E66EE66AFCEC31F0E552E552000EE66E15
:102E4000E66A6CEC32F0E552E552F5EC37F069D009
:102E5000030E0201935D0AE0E66AE66AE66ABFC213
:102E6000E6FFBDC2E6FFBBC2E6FF09D0E66AE66A3E
:102E7000E66ABEC2E6FFBCC2E6FFBAC2E6FFA8EC45
:102E800027F0146E060EE15E1450BBEC31F02BEC13
:102E900032F09DEC32F076EC35F00201470EF96F1E
:102EA000FA6BFB6BFC6B040EE66EF90EE66E020E1F
:102EB000E66EFAEC23F0E552E552E5520201918FFD
:102EC0008B948A908B922DD0B6EC31F026EC32F0B8
:102ED00097EC32F074EC35F00201480EF96FFA6BA2
:102EE000FB6BFC6B040EE66EF90EE66E020EE66EF0
:102EF000FAEC23F0E552E552E552BFC2E6FFBDC24F
:102F0000E6FFBBC2E6FFE66AE66AE66AA8EC27F0DF
:102F1000146E060EE15E14500201919F9181936B35
:102F20009199FD0EDBCFE9FFFE0EDBCFEAFFEF6AE2
:102F3000FD0EDBCFE9FFFE0EDBCFEAFFEE52EF6ABC
:102F4000FD0EDBCFE9FFFE0EDBCFEAFFEE52EF6AAC
:102F5000FD0EDBCFE9FFFE0EDBCFEAFF030EE92615
:102F6000000EEA22EF6A400EE66EE66AFD0EDBCF47
:102F7000E9FFFE0EDBCFEAFF040EE926000EEA228F
:102F8000E9CF14F0EACF15F0E9CFE6FFEACFE6FF8C
:102F900083EC05F0E552E552E552E552FD0EDBCF3C
:102FA000E9FFFE0EDBCFEAFF460EE926000EEA221D
:102FB000EF6A030EE15C02E2E16AE552E16EE5527E
:102FC000E7CFD9FF1200C2C200F2C1C201F2020172
:102FD000026B010E036F02019151020B01E0010E21
:102FE0000201046F8A0E056F440E066F000EE66E36
:102FF000020EE66E49EC02F0E552E5521200D9CF1E
:10300000E6FFE1CFD9FFE652DF6A03018FA130D09E
:103010008F91480EE66E030EE66ED5EC04F0E55295
:10302000E55203018F93E8B08F838FA321D08F9354
:10303000DF6A03014951DF5C1BE2FC0EE66E030E02
:10304000E66E6CEC32F0E552E552320EE66E8FEC35
:1030500038F0E552000EE66EE66A6CEC32F0E552AE
:10306000E552320EE66E8FEC38F0E552DF2AE1D7FA
:10307000E552E552E7CFD9FF1200D9CFE6FFE1CF05
:10308000D9FF030EE126DF6A010EDB6A020EDB6A5E
:10309000FC0EDB50E76E020EE7CFDBFFDF6ADF508E
:1030A000146E156AD890155004E6800E145C000E5C
:1030B000155855E2FC0EDBCF14F0DF50D8801454C5
:1030C00048E2FC0EDBCF15F0080EDF24D880155443
:1030D00040E3FB0EDB041EE1020EDB50D880DF5420
:1030E000FF0F156E010E155204E0E846FE0B1506A3
:1030F000FCE1146E010EDB50E76EFD0EDBCFE9FF45
:10310000FE0EDBCFEAFFE750E926000EEA2214505C
:10311000EF1225D0020EDB50D880DF54FF0F156E62
:10312000010E155204E0E846FE0B1506FCE1FF0A0D
:10313000146E010EDB50E76EFD0EDBCFE9FFFE0ED5
:10314000DBCFEAFFE750E926000EEA221450EF1623
:1031500006D0010EDB2A080EDF24DF6EA0D7030E97
:10316000E15C02E2E16AE552E16EE552E7CFD9FFA8
:103170001200D9CFE6FFE1CFD9FF030EE126DF6AC7
:10318000010EDB6A020EDB6A010EDB6A020EDB6AED
:10319000010EDB50146E156AD890155004E6800EAF
:1031A000145C000E155846E2FC0EDBCF14F0010E45
:1031B000DB50D880145434E2FC0EDBCF15F0010E46
:1031C000DB50080FD88015542BE3020EDB50E76E5E
:1031D000FD0EDBCFE9FFFE0EDBCFEAFFE750E9266D
:1031E000000EEA22EFCFDFFFFC0EDBCFE6FF010E81
:1031F000DB50E552E75CFF0F146EDF5014C0E7FFB1
:10320000E75204E0E8427F0BE706FCE1DF6E000EC8
:10321000DF92DF94DF96DF98DF9ADF9CDF9E0AD093
:10322000020EDB2A010EDB50080FE76E010EE7CF1E
:10323000DBFFAED7DF50146E030EE15C02E2E16A01
:10324000E552E16E1450E552E7CFD9FF1200D9CF15
:10325000E6FFE1CFD9FF040EE126DF6A010EDB6A4B
:10326000FE0EDB504DE0D950FE0F146EFF0EDA203B
:10327000156E020E14C0DBFF030E15C0DBFFFE0E41
:10328000DBCFF3FFDB06F35000093CE0020EDBCF9F
:1032900014F0030EDBCF15F01406000E155A020EC3
:1032A00014C0DBFF030E15C0DBFF14C0E9FF15C01F
:1032B000EAFFEFCFDFFFDF50E2E0010EE66EDFCF87
:1032C000E6FFAA0EE66E020EE66ED7DEE552E55286
:1032D000E552E552010EDB500FE1DE52010EDD6ECC
:1032E000E66EC1C2E6FFAA0EE66E020EE66EC5DE0F
:1032F000E552E552E552E552DF6A02019081BFD7FF
:1033000002019091040EE15C02E2E16AE552E16E95
:10331000E552E7CFD9FF1200D9CFE6FFE1CFD9FFC1
:10332000030EE126DF6A010EDB6AF36E020EF3CFB5
:10333000DBFFFE0EDBCFE6FFAA0EE66E020EE66EA8
:1033400018DFE552E552E552010846E102019051CD
:10335000010B42E0FD0EDBCFE6FFFE0EDBCFE6FF0A
:103360009A0EE66E020EE66E88DEE552E552E552F2
:10337000E552DF6A100EDF5C28E2DF50EA6AAA0F2E
:10338000E96E020EEA22EF501EE0DF50EA6AAA0F51
:10339000E96E020EEA22EFCF14F0DF50EA6A9A0FCC
:1033A000E96E020EEA22EF50145C09E1020EDB0422
:1033B00008E1010EF36E020EF3CFDBFF02D0020E26
:1033C000DB6A010EDB2ADF2AD5D7020EDB0402E11D
:1033D000010E03D0000E01D0000E146E030EE15C4E
:1033E00002E2E16AE552E16E1450E552E7CFD9FFFF
:1033F0001200D9CFE6FFE1CFD9FFE652DF6A020122
:1034000090919093909590979099909B909D909F7C
:1034100091919193919591979199919B919D919F64
:103420009291936B946B010E956F966B976B986B63
:10343000996BDF6A100EDF5C10E2DF50EA6A9A0FC8
:10344000E96E020EEA22EF6ADF50EA6AAA0FE96E1D
:10345000020EEA22EF6ADF2AEDD70201BE6BBF6BD4
:10346000BC6BBD6BBA6BBB6BC06B0201C26B020164
:10347000C16B0201C36B0201C66BC76BDF6A020E30
:10348000DF5C09E2DF50EA6AC40FE96E020EEA224D
:10349000EF6ADF2AF4D7DF6ADF50146E156AD8901E
:1034A000155004E6100E145C000E155809E2DF50AA
:1034B000EA6AC90FE96E020EEA22EF6ADF2AECD748
:1034C000DF6ADF50146E156AD890155004E6100EAE
:1034D000145C000E155809E2DF50EA6AD90FE96E54
:1034E000020EEA22EF6ADF2AECD7DF6ADF50146EA1
:1034F000156AD890155004E6100E145C000E15588D
:1035000009E2DF50EA6AE90FE96E020EEA22EF6A89
:10351000DF2AECD7DF6A040EDF5C09E2DF50EA6ADB
:10352000F90FE96E020EEA22EF6ADF2AF4D7E552BC
:08353000E552E7CFD9FF1200BC
:08353800D9CFE6FFE1CFD9FF76
:10354000FE0EDBCFC4F2FD0EDBCFC5F2E552E7CFB6
:10355000D9FF1200D9CFE6FFE1CFD9FFE652DF6AEB
:10356000FE0EDB50020DFE0EF3CFDBFF8996DF6A05
:10357000FE0EDB50DF5C0AE2040EE66EBDEC38F0B6
:10358000E552000000008976DF2AF2D78996E552DD
:10359000E552E7CFD9FF1200D9CFE6FFE1CFD9FF3F
:1035A000E652DF6AFE0EDB50020DFE0EF3CFDBFFAC
:1035B0008998DF6AFE0EDB50DF5C0AE2040EE66EDD
:1035C000BDEC38F0E552000000008978DF2AF2D720
:1035D0008998E552E552E7CFD9FF1200D9CFE6FF2F
:1035E000E1CFD9FF060EE126DE6ADD6A020EDB6A54
:1035F000030EDB6A040EDB6A050EDB6A010EE66E63
:10360000BDEC38F0E552929692949298928A8996FF
:1036100089948998899A140EE66E9CDFE552070E0C
:10362000E66E8FEC38F0E552040EDB2A050E01E35E
:10363000DB2A010EE66E15EC37F0E552F3CFDEFF24
:10364000F4CFDDFFDECF14F0DDCF15F0020EDBCFBF
:1036500016F0030EDBCF17F01450165C15501758F8
:103660000AE2D9CFE9FFDACFEAFF020EEECFDBFFA5
:10367000030EEDCFDBFF040EDBCF14F0050EDBCF26
:1036800015F00201C651145CC7511558CDE3929A4A
:10369000899689948998899AD950020FE96EDACF70
:1036A000EAFFC80ED880EE54000EED5402E2010E7F
:1036B00001D0000E146E060EE15C02E2E16AE552F2
:1036C000E16E1450E552E7CFD9FF1200D9CFE6FFE3
:1036D000E1CFD9FF060EE126DE6ADD6A020EDB6A63
:1036E000030EDB6A040EDB6A050EDB6A010EE66E72
:1036F000BDEC38F0E552929692849298929A89960F
:1037000089948998899A140EE66E46DFE552070E71
:10371000E66E8FEC38F0E552040EDB2A050E01E36D
:10372000DB2AE66A15EC37F0E552F3CFDEFFF4CF83
:10373000DDFFDECF14F0DDCF15F0020EDBCF16F08B
:10374000030EDBCF17F01450165C155017580AE221
:10375000D9CFE9FFDACFEAFF020EEECFDBFF030E8F
:10376000EDCFDBFF040EDBCF14F0050EDBCF15F041
:103770000201C651145CC7511558CEE39294899644
:1037800089948998899AD950020FE96EDACFEAFFB5
:10379000C80ED880EE54000EED5402E2010E01D0A6
:1037A000000E146E060EE15C02E2E16AE552E16E83
:1037B0001450E552E7CFD9FF1200D9CFE6FFE1CF91
:1037C000D9FFE652DF6A0101012B000E0223D00E61
:1037D000011921E1070E02191EE100DF146E156ABE
:1037E000166A176A14AE03D0156816681768145065
:1037F0000101031315500413165005131750061337
:10380000010E1F0B08E00101D8900337043705377C
:103810000637E806F9E1A00E0101011924E10F0EB7
:10382000021921E1002B016B026B50DF146E156A47
:10383000166A176A14AE03D0156816681768145014
:1038400001010713155008131650091317500A13D6
:10385000010E1F0B08E00101D89007370837093720
:103860000A37E806F9E1200E0101005D47E1006B2F
:103870000B6B03C1E6FF8CD8E55201010B2704C195
:10388000E6FF86D8E55201010B2705C1E6FF80D887
:10389000E55201010B2706C1E6FF7AD8E552010186
:1038A0000B2707C1E6FF74D8E55201010B2708C1B9
:1038B000E6FF6ED8E55201010B2709C1E6FF68D883
:1038C000E55201010B270AC1E6FF62D8E55201016A
:1038D0000B27010EDF6E3A0E0B5D09E3FD0EDBCF09
:1038E000E9FFFE0EDBCFEAFF030EEF6E07D0FD0E01
:1038F000DBCFE9FFFE0EDBCFEAFFEF6ADF040BE16F
:10390000DF6A036B046B056B066B076B086B096B57
:103910000A6B010E01D0000EE552E552E7CFD9FF48
:1039200012000101145115E10C2B000E0D230CC1E6
:1039300014F00DC115F0166AE80E14180AE1FD0E18
:10394000151807E1165005E10C6B0D6B0E2B000EE0
:103950000F23010E0E1906E10F5104E1010E146F41
:103960000E6B0F6B14050EE112050CE0130EE66EE4
:10397000010EE66E22DFE552E5520101126F102BB7
:10398000000E1123120502E1126B146B1351120089
:10399000D9CFE6FFE1CFD9FF020EE126DF6A010EA3
:1039A000DB6ADB6ADF6A080EDF5C10E2FE0EDB50CA
:1039B000010B010802E1010EDB2AFE0EDB407F0B4A
:1039C000E76EFE0EE7CFDBFFDF2AEDD7010EDB50FF
:1039D000146E020EE15C02E2E16AE552E16E1450FF
:1039E000E552E7CFD9FF1200D9CFE6FFE1CFD9FFEB
:1039F0000B0EE126DE6ADD6A020EDB6A030EDB6A6D
:103A0000040EDB6A050EDB6A060EDB6A070EDB6A54
:103A1000080EDB6A090EDB6A0A0EDB6A0201C55179
:103A2000166E176AC451870DF3501624146EF450A5
:103A30001720156E230E145E000E155A080E14C0C2
:103A4000DBFF090E15C0DBFF929692949298928A42
:103A5000899689948998899A0A0EDB6A0F0EF36E0B
:103A60000A0EDBCFF4FFF350F45C56E2140EE66E60
:103A700062EC38F0E552140EE66E6CDDE552070E8E
:103A8000E66E8FEC38F0E552020EDB6A030EDB6A5D
:103A9000DE6ADD6A010EE66E15EC37F0E552F3CF13
:103AA000DEFFF4CFDDFF020EDB2A030E01E3DB2A8B
:103AB000DECF14F0DDCF15F0960E145C000E155815
:103AC0000BE2020EDBCF16F0030EDBCF17F0F40E85
:103AD000165C010E1758DCE3020EDBCF14F0030E68
:103AE000DBCF15F0040EDBCF16F0050EDBCF17F0A1
:103AF0001450165C155017580CE2020EDBCF06F07E
:103B0000030EDBCF07F0040E06C0DBFF050E07C077
:103B1000DBFF0A0EDB2AA2D7040EDBCF14F0050E62
:103B2000DBCF15F0320E145E000E155A060E14C0CF
:103B3000DBFF070E15C0DBFF060EDBCF14F0070E10
:103B4000DBCF15F0080EDBCF16F0090EDBCF17F038
:103B50001450165C1550175805E2060EDBCF14F012
:103B6000070E04D0080EDBCF14F0090EDBCF15F0E2
:103B700014C0F3FF15C0F4FF0B0EE15C02E2E16A32
:103B8000E552E16EE552E7CFD9FF1200D9CFE6FF4B
:103B9000E1CFD9FF040EE126DE6ADE6ADE6ADD6A65
:103BA000DD52DD52FB0EDBCF05F0FC0EDBCF06F065
:103BB000FD0EDBCF07F0FE0EDBCF08F0F70EDBCFFC
:103BC0000AF0F80EDBCF0BF0F90EDBCF0CF0FA0E9B
:103BD000DBCF0DF0C0EC2EF005C0DEFF06C0DEFF2F
:103BE00007C0DEFF08C0DDFFDD52DD52DECF04F08E
:103BF000DECF05F0DECF06F0DDCF07F0DD52DD527F
:103C0000040EE15C02E2E16AE552E16EE552E7CFC3
:103C1000D9FF1200D9CFE6FFE1CFD9FF180EE12678
:103C2000DE6ADD6A020EDB6A030EDB6A480EF36EA3
:103C3000040EF3CFDBFF010EF36E050EF3CFDBFFB7
:103C4000A60EF36E060EF3CFDBFF430EF36E070EE8
:103C5000F3CFDBFFF70EF36E080EF3CFDBFFCC0ED6
:103C6000F36E090EF3CFDBFF120EF36E0A0EF3CFE5
:103C7000DBFF380EF36E0B0EF3CFDBFF0C0EDB6AAF
:103C80000D0EDB6A0E0EDB6A0F0EDB6A100EDB6AAE
:103C9000110EDB6A120EDB6A130EDB6A140EDB6A8E
:103CA000150EDB6A160EDB6A170EDB6A010EE66E76
:103CB000BDEC38F0E552929692849298929A899649
:103CC00089948998899A140EE66E66DCE552070E8F
:103CD000E66E8FEC38F0E552020EDB2A030E01E3AC
:103CE000DB2A080EDBCF14F0090EDBCF15F00A0E2D
:103CF000DBCF16F00B0EDBCF17F0D9500C0FE96EAF
:103D0000DACFEAFFEECF05F0EECF06F0EECF07F008
:103D1000EFCF08F014C00AF015C00BF016C00CF07D
:103D200017C00DF0D7EC2DF008C0EDFF07C0EDFF78
:103D300006C0EDFF05C0EFFFE66A15EC37F0E5526F
:103D4000F3CFDEFFF4CFDDFF020EDBCF14F0030E66
:103D5000DBCF15F00201C651145CC751155809E2BA
:103D6000DECF16F0DDCF17F0C80E165C000E175828
:103D7000B3E30C0EDBCF61F10D0EDBCF62F10E0E63
:103D8000DBCF63F10F0EDBCF64F1020EDB6A030EB3
:103D9000DB6A020EDBCF14F0030EDBCF15F0140E3E
:103DA000145C000E15583DE2020EDBCFE9FF030E56
:103DB000DBCFEAFF020ED890E936EA36E806FBE1EF
:103DC000150EE926010EEA22EECF14F0EECF15F023
:103DD000EECF16F0EFCF17F0D950100FE96EDACF13
:103DE000EAFFEECF05F0EECF06F0EECF07F0EFCF13
:103DF00008F014C00AF015C00BF016C00CF017C084
:103E00000DF0D7EC2DF008C0EDFF07C0EDFF06C0A8
:103E1000EDFF05C0EFFF020EDB2A030EBAE3DB2A3B
:103E2000B8D7020EDB6A030EDB6A020EDBCF14F09A
:103E3000030EDBCF15F0130E145C000E15583CE298
:103E4000010EE76E020EDBCFE9FF030EDBCFEAFFC8
:103E5000E750E926000EEA22020ED890E936EA364B
:103E6000E806FBE1150EE926010EEA22EECF14F07A
:103E7000EECF15F0EECF16F0EFCF17F0020EDBCF3E
:103E8000E9FF030EDBCFEAFF020ED890E936EA36EF
:103E9000E806FBE1150EE926010EEA2214C0EEFF4A
:103EA00015C0EEFF16C0EEFF17C0EEFF020EDB2AB4
:103EB000030EBBE3DB2AB9D7146A156AA00E166E8F
:103EC000410E176ED950100FE96EDACFEAFFEECF30
:103ED00005F0EECF06F0EECF07F0EFCF08F014C0FC
:103EE0000AF015C00BF016C00CF017C00DF06DEC09
:103EF0002EF008C0EDFF07C0EDFF06C0EDFF05C0C6
:103F0000EFFFD950100FE96EDACFEAFFEECFE6FFF0
:103F1000EECFE6FFEECFE6FFEFCFE6FFD950040F7E
:103F2000E96EDACFEAFFEECFE6FFEECFE6FFEECFA7
:103F3000E6FFEFCFE6FF2ADE146E080EE15E1450B6
:103F4000140E04C0DBFF150E05C0DBFF160E06C005
:103F5000DBFF170E07C0DBFF140EDBCF14F0150ECE
:103F6000DBCF15F0160EDBCF16F0170EDBCF17F0F8
:103F700014C004F015C005F016C006F017C007F015
:103F8000180EE15C02E2E16AE552E16EE552E7CF2C
:103F9000D9FF1200D9CFE6FFE1CFD9FF0A0EE12603
:103FA000DE6ADE6ADE6ADD6ADD52DD52040EDB6A3D
:103FB000050EDB6A060EDB6A070EDB6A080EDB6A9B
:103FC000090EDB6A27DE04C0DEFF05C0DEFF06C087
:103FD000DEFF07C0DDFFDD52DD52056A066AC80E4E
:103FE000076E420E086E000EDFCF0AF0010EDBCF27
:103FF0000BF0020EDBCF0CF0030EDBCF0DF0C0ECAC
:104000002EF0040E05C0DBFF050E06C0DBFF060E1A
:1040100007C0DBFF070E08C0DBFF040EDBCF05F097
:10402000050EDBCF06F0060EDBCF07F0070EDBCF69
:1040300008F02DEC2FF0080E06C0DBFF090E07C0BC
:10404000DBFFD950080FE96EDACFEAFF000ED88007
:10405000EE54040EED5407E2080EDB68030EF36E17
:10406000090EF3CFDBFF080EDBCF14F0090EDBCF18
:1040700015F014C0F3FF15C0F4FF0A0EE15C02E274
:10408000E16AE552E16EE552E7CFD9FF1200D9CFE0
:10409000E6FFE1CFD9FF030EE126DE6ADD6A020EFC
:1040A000DB6A0101640E8D1901E084D08E5101E0BC
:1040B00081D0030E8F5D76E26DDFF3CF8BF1F4CF0D
:1040C0008CF1020EDB6A140EF36E020EDBCFF4FFEE
:1040D000F350F45C19E2020EEA6ADB34FE0BEA36B6
:1040E000E96E650EE926010EEA22EECF14F0EFCF5D
:1040F00015F0D9CFE9FFDACFEAFF1450EE261550BC
:10410000ED22020EDB2ADFD7020EDB6A130EF36EFE
:10411000020EDBCFF4FFF350F45C20E2020EDB284A
:10412000E96EEA6AD890E936EA36650EE926010EAC
:10413000EA22EECF14F0EFCF15F0020EEA6ADB347C
:10414000FE0BEA36E96E650EE926010EEA2214C07E
:10415000EEFF15C0EDFF020EDB2AD8D7D9CFE9FF5D
:10416000DACFEAFF140E0B6E0C6AEECF06F0EDCF3D
:1041700007F079EC38F006C0EEFF07C0EDFFFD0E4A
:10418000DBCF14F0FE0EDBCF15F0DECF16F0DDCF67
:1041900017F01450165C1550175802E2030E0DD09C
:1041A000000E0BD08F2B030E8F5D07E18D6B8E6B96
:1041B0008F6B03D08D2B000E8E23146E030EE15CEB
:1041C00002E2E16AE552E16E1450E552E7CFD9FF11
:1041D0001200D9CFE6FFE1CFD9FF070EE126DE6A54
:1041E000DD6A020EDB6A030EDB6A040EDB6A050E73
:1041F000DB6A060EDB6A010EE66EBDEC38F0E552B6
:10420000929692949298928A899689948998899A9A
:10421000140EE66EAAEC1AF0E552070EE66E8FEC6D
:1042200038F0E552040EDB2A050E01E3DB2A010E0D
:10423000E66E15EC37F0E552F3CFDEFFF4CFDDFF8D
:10424000DECF14F0DDCF15F0020EDBCF16F0030E3B
:10425000DBCF17F01450165C155017580AE2D9CF6F
:10426000E9FFDACFEAFF020EEECFDBFF030EEDCF60
:10427000DBFF040EDBCF14F0050EDBCF15F00201DF
:10428000C651145CC7511558CDE3929A899689940A
:104290008998899A020EDBCFB6F1030EDBCFB7F116
:1042A000060EDB6A140EF36E060EDBCFF4FFF3503E
:1042B000F45C12E2060EEA6ADB34FE0BEA36E96EC3
:1042C000900EE926010EEA22EE500101B827EE50C9
:1042D000B923060EDB2AE6D7060EDB6A130EF36E51
:1042E000060EDBCFF4FFF350F45C20E2060EDB2871
:1042F000E96EEA6AD890E936EA36900EE926010EB0
:10430000EA22EECF14F0EFCF15F0060EEA6ADB34A6
:10431000FE0BEA36E96E900EE926010EEA2214C081
:10432000EEFF15C0EDFF060EDB2AD8D7140E0B6E7C
:104330000C6AB8C106F0B9C107F079EC38F006C0D4
:10434000B8F107C0B9F10101B40E065C000E0758C0
:1043500004E2140EB827000EB923C80ED880B85551
:10436000000EB95502E2010E01D0000E146E070EC8
:10437000E15C02E2E16AE552E16E1450E552E7CFFA
:10438000D9FF1200D9CFE6FFE1CFD9FF070EE12612
:10439000DE6ADD6A020EDB6A030EDB6A040EDB6A8C
:1043A000050EDB6A060EDB6A010EE66EBDEC38F028
:1043B000E552929692849298929A899689948998D5
:1043C000899A140EE66ECCEC1AF0E552070EE66EF2
:1043D0008FEC38F0E552040EDB2A050E01E3DB2AF0
:1043E000E66A15EC37F0E552F3CFDEFFF4CFDDFFE0
:1043F000DECF14F0DDCF15F0020EDBCF16F0030E8A
:10440000DBCF17F01450165C155017580AE2D9CFBD
:10441000E9FFDACFEAFF020EEECFDBFF030EEDCFAE
:10442000DBFF040EDBCF14F0050EDBCF15F002012D
:10443000C651145CC7511558CEE39294899689945D
:104440008998899A020EDBCFE0F1030EDBCFE1F110
:10445000060EDB6A140EF36E060EDBCFF4FFF3508C
:10446000F45C12E2060EEA6ADB34FE0BEA36E96E11
:10447000BA0EE926010EEA22EE500101E227EE50C3
:10448000E323060EDB2AE6D7060EDB6A130EF36E75
:10449000060EDBCFF4FFF350F45C20E2060EDB28BF
:1044A000E96EEA6AD890E936EA36BA0EE926010ED4
:1044B000EA22EECF14F0EFCF15F0060EEA6ADB34F5
:1044C000FE0BEA36E96EBA0EE926010EEA2214C0A6
:1044D000EEFF15C0EDFF060EDB2AD8D7140E0B6ECB
:1044E0000C6AE2C106F0E3C107F079EC38F006C0CF
:1044F000E2F107C0E3F10101B40E065C000E0758BB
:1045000004E2140EE227000EE323C80ED880E25521
:10451000000EE35502E2010E01D0000E146E070EEC
:10452000E15C02E2E16AE552E16E1450E552E7CF48
:10453000D9FF1200D9CFE6FFE1CFD9FFE652DF6AFB
:104540000101E52B000EE623D00EE51921E1070E4F
:10455000E6191EE13EDE146E156A166A176A14AE7D
:1045600003D015681668176814500101E713155039
:10457000E8131650E9131750EA13010E1F0B08E059
:104580000101D890E737E837E937EA37E806F9E17B
:10459000A00E0101E51924E10F0EE61921E1E42B3B
:1045A000E56BE66BEFDE146E156A166A176A14AED9
:1045B00003D015681668176814500101EB131550E5
:1045C000EC131650ED131750EE13010E1F0B08E0FD
:1045D0000101D890EB37EC37ED37EE37E806F9E11B
:1045E000200E0101E45D4FE1E46BEF6BE7C1E6FFF4
:1045F000C8EC1CF0E5520101EF27E8C1E6FFC8EC6A
:104600001CF0E5520101EF27E9C1E6FFC8EC1CF000
:10461000E5520101EF27EAC1E6FFC8EC1CF0E552C4
:104620000101EF27EBC1E6FFC8EC1CF0E5520101E8
:10463000EF27ECC1E6FFC8EC1CF0E5520101EF27C3
:10464000EDC1E6FFC8EC1CF0E5520101EF27EEC119
:10465000E6FFC8EC1CF0E5520101EF27010EDF6E0A
:104660003A0EEF5D09E3FD0EDBCFE9FFFE0EDBCF77
:10467000EAFF030EEF6E07D0FD0EDBCFE9FFFE0E63
:10468000DBCFEAFFEF6ADF040BE1DF6AE76BE86B81
:10469000E96BEA6BEB6BEC6BED6BEE6B010E01D033
:0C46A000000EE552E552E7CFD9FF1200F2
:0446AC0093849386DA
:1046B0001200939493961200D9CFE6FFE1CFD9FF71
:1046C000FE0EDB50040A0DE0070A09E0010A04E0CF
:1046D000030A09E18A9401D08A848A9604D08A94D4
:1046E00001D08A848A86E552E7CFD9FF1200815033
:1046F000040B1EE18150080B1BE1020191A117D0B0
:104700009191E66AE66A8B0EE66EE66AE668E66A0C
:1047100027EC28F0146E060EE15E1450E66AE66A95
:104720008B0EE66E4DEC27F0E552E552E552010C9A
:104730008150040B1DE18150080B1AE0020191B178
:1047400016D09181E668E66AE66AE66AE66A8B0E4A
:10475000E66E27EC28F0146E060EE15E1450E66853
:10476000E66AE66A4DEC27F0E552E552E552020CA6
:104770008150040B1DE08150080B1AE1020191B138
:1047800016D09181E66AE668E66AE66AE66A8B0E0A
:10479000E66E27EC28F0146E060EE15E1450E66A11
:1047A000E668E66A4DEC27F0E552E552E552030C67
:1047B0008150040B1EE08150080B1BE0020191A107
:1047C00017D09191E66AE66A8B0EE66EE668E66AB5
:1047D000E66A27EC28F0146E060EE15E1450E66AD5
:1047E000E66A8B0EE66E4DEC27F0E552E552E55297
:1047F000040E1200D9CFE6FFE1CFD9FFE652DF6AFF
:10480000DF6AFC0EDB50DF5C16E2FD0EDBCFE9FF5A
:10481000FE0EDBCFEAFFEF50E66EB5EC36F0E55268
:10482000FD0EDBCFE9FFDB2AFE0EDBCFEAFF01E363
:10483000DB2ADF2AE6D7E552E552E7CFD9FF12009F
:10484000D9CFE6FFE1CFD9FF040EE126DF6AD950C8
:10485000010FE96EDACFEAFFEE6AEE6AEE6A020154
:1048600090A122D0FD0EDBCFE6FFFE0EDBCFE6FFF0
:104870008CEC19F0E552E5520201FD6F010EDB6A86
:10488000020EDB6A030EDB6AFD0506E1FE5104E160
:10489000010EFE6F430E06D0FD5119E1FE0517E132
:1048A000FE6B440EDF6E09D0FC0EDB50DF6E010E96
:1048B000DB6A020EDB6A030EDB6A040EE66ED9CFFA
:1048C000E6FFDACFE6FF96DFE552E552E552040E49
:1048D000E15C02E2E16AE552E16EE552E7CFD9FF21
:1048E0001200D9CFE6FFE1CFD9FF050EE126DF6A3E
:1048F000010EDB6A020EDB6A030EDB6A040EDB6A62
:1049000081B446D0DF6AFC0EDB50DF5C3FE21DEC79
:1049100036F0E66EFD0EDBCFE9FFFE0EDBCFEAFFE1
:10492000E552E750EF6EFD0EDBCFE9FFDB2AFE0E0E
:10493000DBCFEAFF01E3DB2AFC0EDB04DF5C1CE2D9
:104940008150040B19E0D950010FE96EDACFEAFF6C
:10495000400EEE5C0D0EEE58030EEE58000EEE58B3
:104960000BE2D950010FE96EDACFEAFFEE2A000E12
:10497000EE22EE22EE22E4D7010EDB6A020EDB6AA3
:10498000030EDB6A040EDB6ADF2ABDD7010E01D0FD
:10499000000E146E050EE15C02E2E16AE552E16E82
:1049A0001450E552E7CFD9FF1200D9CFE6FFE1CF8F
:1049B000D9FFFD0EDBCFE9FFFE0EDBCFEAFFEF50A4
:1049C000480A01E104D10F0A01E1DAD0010A01E14C
:1049D000CFD0030A01E1B4D0010A01E191D0070A66
:1049E00073E0010A3AE0030A01E00BD1010EE76E21
:1049F000FD0EDBCFE9FFFE0EDBCFEAFFE750E92635
:104A0000000EEA22EFCFBAF2020EE76EFD0EDBCF08
:104A1000E9FFFE0EDBCFEAFFE750E926000EEA22AF
:104A2000EFCFBCF2030EE76EFD0EDBCFE9FFFE0E0B
:104A3000DBCFEAFFE750E926000EEA22EFCFBEF215
:104A4000BA0EE66E020EE66E71EC2CF0E552E552FF
:104A50000201FF0501E0D5D04CD0010EE76EFD0E3E
:104A6000DBCFE9FFFE0EDBCFEAFFE750E926000EC1
:104A7000EA22EFCFBBF2020EE76EFD0EDBCFE9FFBD
:104A8000FE0EDBCFEAFFE750E926000EEA22EFCF69
:104A9000BDF2030EE76EFD0EDBCFE9FFFE0EDBCFAE
:104AA000EAFFE750E926000EEA22EFCFBFF2BA0E86
:104AB000E66E020EE66E71EC2CF0E552E552020154
:104AC000FF5101E09ED030D00201010EFF6FBEC247
:104AD000E6FFBCC2E6FFBAC2E6FFBFC2E6FFBDC248
:104AE000E6FFBBC2E6FFA8EC27F0146E060EE15EFF
:104AF0001450BEC2E6FFBCC2E6FFBAC2E6FF1AD03F
:104B00000201FF6BBFC2E6FFBDC2E6FFBBC2E6FF0C
:104B1000BEC2E6FFBCC2E6FFBAC2E6FFA8EC27F0C1
:104B2000146E060EE15E1450BFC2E6FFBDC2E6FF82
:104B3000BBC2E6FF4DEC27F0E552E552E55261D0ED
:104B4000BA0EE66E020EE66E41EC2DF0E552E5522D
:104B5000BFC2E6FFBDC2E6FFBBC2E6FFE668E66A8B
:104B6000E66A27EC28F0146E060EE15E145049D078
:104B70000201BB6BBD6BBF6BBA6BBC6BBE6B41D034
:104B80000201FF050AE1E66AE66AE66ABEC2E6FFDE
:104B9000BCC2E6FFBAC2E6FF09D0E66AE66AE66A88
:104BA000BFC2E6FFBDC2E6FFBBC2E6FFA8EC27F02E
:104BB000146E060EE15E1450BBEC31F02BEC32F0BB
:104BC0009DEC32F076EC35F00201929117D0B6EC04
:104BD00031F026EC32F097EC32F074EC35F0BFC2D5
:104BE000E6FFBDC2E6FFBBC2E6FFE66AE66AE66A2A
:104BF000A8EC27F0146E060EE15E14508B948A9098
:104C00008B92FD0EDBCFE9FFFE0EDBCFEAFFEF6AF2
:104C1000010EE76EFD0EDBCFE9FFFE0EDBCFEAFFF4
:104C2000E750E926000EEA22EF6A020EE76EFD0E5B
:104C3000DBCFE9FFFE0EDBCFEAFFE750E926000EEF
:104C4000EA22EF6A030EE76EFD0EDBCFE9FFFE0EF0
:104C5000DBCFEAFFE750E926000EEA22EF6AE552D1
:104C6000E7CFD9FF1200D9CFE6FFE1CFD9FF040E7D
:104C7000E126DF6AD950010FE96EDACFEAFFEE6A6A
:104C8000EE6AEE6A450EDF6E010EDB6A020EDB6A2B
:104C9000030EDB6A040EE66ED9CFE6FFDACFE6FF3D
:104CA000A9DDE552E552E552040EE15C02E2E16A5B
:104CB000E552E16EE552E7CFD9FF1200D9CFE6FF0A
:104CC000E1CFD9FF040EE126DF6AD950010FE96E6A
:104CD000DACFEAFFEE6AEE6AEE6A460EDF6E010E8A
:104CE000DB6A020EDB6A030EDB6A040EE66ED9CFC6
:104CF000E6FFDACFE6FF7EDDE552E552E552040E2F
:104D0000E15C02E2E16AE552E16EE552E7CFD9FFEC
:104D10001200D9CFE6FFE1CFD9FF040EE126DF6A0A
:104D2000D950010FE96EDACFEAFFEE6AEE6AEE6A59
:104D3000410EDF6EFE0EDB50E76E010EE7CFDBFFAC
:104D4000FD0EDB50E76E020EE7CFDBFFFC0EDB5003
:104D5000E76E030EE7CFDBFF040EE66ED9CFE6FF6A
:104D6000DACFE6FF47DDE552E552E552040EE15C9D
:104D700002E2E16AE552E16EE552E7CFD9FF1200A7
:104D8000D9CFE6FFE1CFD9FF040EE126DF6AD95083
:104D9000010FE96EDACFEAFFEE6AEE6AEE6A420EC2
:104DA000DF6EFE0EDB50E76E010EE7CFDBFFFD0E80
:104DB000DB50E76E020EE7CFDBFFFC0EDB50E76E49
:104DC000030EE7CFDBFF040EE66ED9CFE6FFDACFA6
:104DD000E6FF10DDE552E552E552040EE15C02E229
:104DE000E16AE552E16EE552E7CFD9FF1200D9CF73
:104DF000E6FFE1CFD9FF040EE126DF6AD950010FAB
:104E0000E96EDACFEAFFEE6AEE6AEE6A430EDF6E13
:104E1000010EDB6A020EDB6A030EDB6A040EE66E2D
:104E2000D9CFE6FFDACFE6FFE5DCE552E552E55201
:104E3000040EE15C02E2E16AE552E16EE552E7CF81
:104E4000D9FF1200D9CFE6FFE1CFD9FF040EE1264A
:104E5000DF6AD950010FE96EDACFEAFFEE6AEE6A37
:104E6000EE6A440EDF6E010EDB6A020EDB6A030E91
:104E7000DB6A040EE66ED9CFE6FFDACFE6FFBADCD6
:104E8000E552E552E552040EE15C02E2E16AE552C8
:0A4E9000E16EE552E7CFD9FF1200F2
:064E9A00D9CFE6FFE1CFD5
:104EA000D9FFFE0EDB50040DF3CF14F0F4CF15F054
:104EB000F3CFE6FFF4CFE6FF6CEC32F0E552E552BB
:104EC000FD0EDB50040DF3CF14F0F4CF15F0F3CF4B
:104ED000E6FFF4CFE6FFFCEC31F0E552E552FC0EC4
:104EE000DB50040DF3CF14F0F4CF15F0F3CFE6FF51
:104EF000F4CFE6FF8CEC31F0E552E552E552E7CF16
:104F0000D9FF1200D9CFE6FFE1CFD9FFFD0EDBCFED
:104F1000E6FFFE0EDBCFE6FF6CEC32F0E552E55229
:104F2000FB0EDBCFE6FFFC0EDBCFE6FFFCEC31F047
:104F3000E552E552F90EDBCFE6FFFA0EDBCFE6FFD6
:104F40008CEC31F0E552E552E552E7CFD9FF120083
:104F5000D9CFE6FFE1CFD9FF040EE126DF6A010ECB
:104F6000DB6A020EDB6A030EDB6AFE0EDB50DF6ECD
:104F7000FD0EDB50E76E010EE7CFDBFFFC0EDB50D2
:104F8000E76E020EE7CFDBFF030EDB6ADB50146E29
:104F9000156AD890155004E6FF0E145C000E1558E3
:104FA0004CE2FB0EDB50DF5C02E2DF2A06D0FB0E98
:104FB000DB50D880DF5401E2DF06FA0EDB50F36EDF
:104FC000010EDBCFF4FFF350F45C03E2010EDB2AA9
:104FD0000AD0010EDBCF14F0FA0EDB50D880145447
:104FE00002E2010EDB06F90EDB50F36E020EDBCFA0
:104FF000F4FFF350F45C03E2020EDB2A0AD0020E47
:10500000DBCF14F0F90EDB50D880145402E2020E0C
:10501000DB061E0EE66E8FEC38F0E552020EDBCF9B
:10502000E6FF010EDBCFE6FFDFCFE6FF36DFE5521E
:10503000E552E552030EDB2AA9D7040EE15C02E239
:10504000E16AE552E16EE552E7CFD9FF1200D9CF10
:10505000E6FFE1CFD9FF040EE126DF6A010EDB6A2D
:10506000020EDB6A030EDB6AFE0EDB50DF6EFD0E06
:10507000DB50E76E010EE7CFDBFFFC0EDB50E76E87
:10508000020EE7CFDBFF030EDB6ADB50146E156AFE
:10509000D890155004E6FF0E145C000E15584CE233
:1050A000FB0EDB50DF5C02E2DF2A06D0FB0EDB509A
:1050B000D880DF5401E2DF06FA0EDB50F36E010EFA
:1050C000DBCFF4FFF350F45C03E2010EDB2A0AD0DD
:1050D000010EDBCF14F0FA0EDB50D880145402E23C
:1050E000010EDB06F90EDB50F36E020EDBCFF4FF90
:1050F000F350F45C03E2020EDB2A0AD0020EDBCF8F
:1051000014F0F90EDB50D880145402E2020EDB06D4
:105110000A0EE66E8FEC38F0E552020EDBCFE6FFAA
:10512000010EDBCFE6FFDFCFE6FFB7DEE552E5524B
:10513000E552030EDB2AA9D7040EE15C02E2E16A24
:10514000E552E16EE552E7CFD9FF1200D9CFE6FF75
:10515000E1CFD9FF0301905191110DE195510BE180
:10516000FE0EDBCF92F3FD0EDBCF93F3FC0EDBCF15
:1051700094F3010E956FF40E90194BE1010E911905
:1051800048E1906B916BFB0EDB50F36EFE0EDBCFB4
:10519000F4FFF350F45C02E2922B09D0FE0EDBCF59
:1051A00014F0FB0EDB50D880145401E29207FA0E83
:1051B000DB50F36EFD0EDBCFF4FFF350F45C02E244
:1051C000932B09D0FD0EDBCF14F0FA0EDB50D88004
:1051D000145401E29307F90EDB50F36EFC0EDBCFA3
:1051E000F4FFF350F45C02E2942B09D0FC0EDBCF09
:1051F00014F0F90EDB50D880145401E2940794C3E4
:10520000E6FF93C3E6FF92C3E6FF47DEE552E552B1
:10521000E5520301902B000E9123FB0EDB50925DB3
:105220000BE1FA0EDB50935D07E1FB0EDB50925D64
:1052300003E1956B010E01D0000EE552E7CFD9FFD7
:105240001200D9CFE6FFE1CFD9FF030196519711A4
:1052500003E1986B9A6B996BF40E96191EE1010E9F
:1052600097191BE1966B976BFE0EDB50000801E26D
:10527000982BFD0EDB50000801E2992BFC0EDB5051
:10528000000801E29A2B9AC3E6FF99C3E6FF98C390
:10529000E6FF03DEE552E552E5520301962B000ED0
:1052A0009723FE0EDB50985D0AE1FD0EDB50995D01
:1052B00006E1FC0EDB509A5D02E1010E01D0000E0A
:1052C000E552E7CFD9FF1200D9CFE6FFE1CFD9FFF2
:1052D00003019B51146E156AC80E141803E1155092
:1052E00001E19B6B640E9B5D10E2FE0EDB5000083B
:1052F00001E29C2BFD0EDB50000801E29D2BFC0E11
:10530000DB50000811E29E2B0FD0FE0EDB50000890
:1053100001E29C07FD0EDB50000801E29D07FC0E38
:10532000DB50000801E29E079EC3E6FF9DC3E6FF37
:105330009CC3E6FFB2DDE552E552E55203019B2B2B
:10534000E552E7CFD9FF1200D9CFE6FFE1CFD9FF71
:105350000301A1510DE1A2510BE1A35109E1FE0EA0
:10536000DBCFA1F3FD0EDBCFA2F3FC0EDBCFA3F36B
:105370000201C051146E156A145003019F191BE1FC
:105380001550A01918E19F6BA06BA151000801E214
:10539000A107A251000801E2A207A351000801E2FF
:1053A000A307A3C3E6FFA2C3E6FFA1C3E6FF75DD23
:1053B000E552E552E55203019F2B000EA023E55272
:1053C000E7CFD9FF1200D9CFE6FFE1CFD9FFE652F0
:1053D000DF6ADF6ADF50146E156AD890155004E654
:1053E000FF0E145C000E155823E2FE0EDB50000881
:1053F00002E20301A42BFD0EDB50000802E20301D0
:10540000A52BFC0EDB50000802E20301A62BA6C36D
:10541000E6FFA5C3E6FFA4C3E6FF3FDDE552E55284
:10542000E552140EE66E8FEC38F0E552DF2AD2D743
:10543000DF6ADF50146E156AD890155004E6FF0E2F
:10544000145C000E155823E2FE0EDB50000802E249
:105450000301A407FD0EDB50000802E20301A507CB
:10546000FC0EDB50000802E20301A607A6C3E6FF1C
:10547000A5C3E6FFA4C3E6FF10DDE552E552E55201
:10548000140EE66E8FEC38F0E552DF2AD2D7E552E3
:10549000E552E7CFD9FF1200D9CFE6FFE1CFD9FF20
:1054A0000301A751A81109E1FE0EDBCFA9F3FD0E00
:1054B000DBCFAAF3FC0EDBCFABF3460EA7191DE141
:1054C000A8511BE1A76BA86BFE0EDB50000801E2A0
:1054D000A907FD0EDB50000801E2AA07FC0EDB5015
:1054E000000801E2AB07ABC3E6FFAAC3E6FFA9C30E
:1054F000E6FFD3DCE552E552E5520301A72B000E8F
:10550000A823E552E7CFD9FF1200D9CFE6FFE1CFBC
:10551000D9FFFE0EDBCFBAF2FD0EDBCFBCF2FC0EE4
:10552000DBCFBEF2E552E7CFD9FF1200D9CFE6FFBD
:10553000E1CFD9FFFE0EDBCFBBF2FD0EDBCFBDF21C
:0E554000FC0EDBCFBFF2E552E7CFD9FF120021
:02554E00D9CFB3
:10555000E6FFE1CFD9FF070EE126DF6AD950010F40
:10556000E96EDACFEAFFEE6AEE6AEE6AEE6AEE6A9A
:10557000060EDB6ADB6AF36EDBCFF4FFE850F45C07
:1055800019E2060EDBCFE6FF32EC38F0E552E66EAC
:10559000D9CF14F0DACF15F0060EDB500F01D92465
:1055A000E96E000EDA20EA6EE552E750EF6E060E65
:1055B000DB2AE1D7FF0EDF5C16E1010EDB50FF08AE
:1055C00012E1020EDB50FF080EE1030EDB50FF0874
:1055D0000AE1040EDB50FF0806E1050EDB50FF0870
:1055E00002E1000E5AD0DF500FE1010EDB500CE15A
:1055F000020EDB5009E1030EDB5006E1040EDB5026
:1056000003E1050EDB5048E0FD0EDBCFE9FFFE0EA7
:10561000DBCFEAFFDFCFEFFFFD0EDBCFE9FFFE0EB2
:10562000DBCFEAFF020EE926000EEA22010EDBCFF5
:10563000EFFFFD0EDBCFE9FFFE0EDBCFEAFF040E2E
:10564000E926000EEA22020EDBCFEFFFFD0EDBCFD4
:10565000E9FFFE0EDBCFEAFFEE52030EDBCFEFFFDA
:10566000FD0EDBCFE9FFFE0EDBCFEAFF030EE926DE
:10567000000EEA22040EDBCFEFFFFD0EDBCFE9FFC9
:10568000FE0EDBCFEAFF050EE926000EEA22050E2C
:10569000DBCFEFFF010E01D0000E146E070EE15CB0
:1056A00002E2E16AE552E16E1450E552E7CFD9FF1C
:1056B0001200D9CFE6FFE1CFD9FFE652DF6A060E2E
:1056C000E66E32EC38F0E552DF6EFF0EDF5C02E191
:1056D000000E15D0DF5012E0DF50E66EFD0EDBCF7E
:1056E000E9FFFE0EDBCFEAFF020EE926000EEA22FA
:1056F000E552E750EE6EED6A010E01D0000EE55264
:10570000E552E7CFD9FF1200D9CFE6FFE1CFD9FFAD
:10571000E652DF6A090EE66E32EC38F0E552DF6ED3
:10572000FF0EDF5C04E0DF5004E0DF0402E1010E65
:1057300001D0000EE552E552E7CFD9FF1200D9CFD4
:10574000E6FFE1CFD9FFFE0EDB0403E1010EE66EBA
:1057500001D0E66A090EE66E15EC38F0E552E55226
:10576000010EE552E7CFD9FF1200D9CFE6FFE1CF16
:10577000D9FFE652DF6ADF6A100EDF5C17E2DF5006
:10578000E76EFD0EDBCFE9FFFE0EDBCFEAFFE75051
:10579000E926000EEA22EF50E66E0A0EDF24E66EDE
:1057A00015EC38F0E552E552DF2AE6D7E552E5522E
:1057B000E7CFD9FF1200D9CFE6FFE1CFD9FF030E23
:1057C000E126DF6A010EDB6A020EDB6ADF6A100E79
:1057D000DF5C33E20A0EDF24E66E32EC38F0E5528D
:1057E000E76E010EE7CFDBFFDB50FF0817E0010E8D
:1057F000DB5014E0DF50E76EFD0EDBCFE9FFFE0E5D
:10580000DBCFEAFFE750E926000EEA22010EDBCFEC
:10581000EFFFF36E020EF3CFDBFF0DD0DF50E76E2C
:10582000FD0EDBCFE9FFFE0EDBCFEAFFE750E926F6
:10583000000EEA22EF6ADF2ACAD7020EDB50146E8E
:10584000030EE15C02E2E16AE552E16E1450E552BA
:10585000E7CFD9FF1200D9CFE6FFE1CFD9FFE6525B
:10586000DF6A070EE66E32EC38F0E552DF6EFF0EAF
:10587000DF5C02E1000E0DD0DF500AE0FD0EDBCF51
:10588000E9FFFE0EDBCFEAFFDFCFEFFF010E01D015
:10589000000EE552E552E7CFD9FF1200D9CFE6FF5F
:1058A000E1CFD9FFE652DF6A080EE66E32EC38F03F
:1058B000E552DF6EFF0EDF5C02E1000E0DD0DF501F
:1058C0000AE0FD0EDBCFE9FFFE0EDBCFEAFFDFCF04
:1058D000EFFF010E01D0000EE552E552E7CFD9FFF0
:1058E0001200D9CFE6FFE1CFD9FFFD0EDBCFE9FFF4
:1058F000FE0EDBCFEAFFEF50E66EE66A15EC38F0FD
:10590000E552E552010863E1FD0EDBCFE9FFFE0E33
:10591000DBCFEAFF020EE926000EEA22EF50E66E28
:10592000010EE66E15EC38F0E552E55201084FE144
:10593000FD0EDBCFE9FFFE0EDBCFEAFF040EE9260A
:10594000000EEA22EF50E66E020EE66E15EC38F01D
:10595000E552E55201083BE1FD0EDBCFE9FFFE0E0B
:10596000DBCFEAFFEE52EF50E66E030EE66E15EC6B
:1059700038F0E552E55201082AE1FD0EDBCFE9FFE0
:10598000FE0EDBCFEAFF030EE926000EEA22EF50FF
:10599000E66E040EE66E15EC38F0E552E5520108AD
:1059A00016E1FD0EDBCFE9FFFE0EDBCFEAFF050EB1
:1059B000E926000EEA22EF50E66E050EE66E15ECC3
:1059C00038F0E552E552010802E1010E01D0000E67
:1059D000E552E7CFD9FF1200D9CFE6FFE1CFD9FFDB
:1059E000FD0EDBCFE9FFFE0EDBCFEAFF020EE9265C
:1059F000000EEA22EF50E66E060EE66E15EC38F069
:105A0000E552E552010802E1010E01D0000EE55217
:105A1000E7CFD9FF1200D9CFE6FFE1CFD9FFFD0EC6
:105A2000DBCFE9FFFE0EDBCFEAFFEF50E66E070E9D
:105A3000E66E15EC38F0E552E552010802E1010E80
:105A400001D0000EE552E7CFD9FF1200D9CFE6FF13
:105A5000E1CFD9FFFD0EDBCFE9FFFE0EDBCFEAFF82
:105A6000EF50E66E080EE66E15EC38F0E552E552A2
:105A7000010802E1010E01D0000EE552E7CFD9FF87
:105A80001200D9CFE6FFE1CFD9FFFD0EDBCFE6FF55
:105A9000FE0EDBCFE6FF5BDDE552E552010802E1D9
:105AA000010E0AD0FD0EDBCFE6FFFE0EDBCFE6FFD8
